:020000040800F2
:10000000280A0020CD010008712400084D1E0008B8
:10001000E5220008D3020008B92B00080000000008
:10002000000000000000000000000000752400082F
:100030006F030008000000007324000895250008E5
:10004000E7010008E7010008E7010008E7010008F0
:10005000E7010008E7010008E7010008E7010008E0
:10006000E7010008E7010008E7010008E7010008D0
:100070001503000821030008E7010008E701000854
:100080002D03000839030008E7010008E701000814
:10009000E7010008E7010008E7010008E7010008A0
:1000A000E7010008F9250008E7010008E70100085A
:1000B00005260008E7010008E7010008E70100083D
:1000C000E7010008E7010008E7010008E701000870
:1000D000E7010008E7010008A12B0008AD2B00088C
:1000E000E7010008E7010008E7010008E701000850
:1000F0001D260008E7010008E7010008E7010008E5
:10010000E7010008E7010008E7010008E70100082F
:10011000E7010008D128000811260008E7010008BF
:10012000E7010008E7010008E7010008E70100080F
:1001300000F002F800F03AF80AA090E8000C8244BF
:100140008344AAF10107DA4501D100F02FF8AFF29C
:10015000090EBAE80F0013F0010F18BFFB1A43F0A5
:1001600001031847282B0000482B0000103A24BF39
:1001700078C878C1FAD8520724BF30C830C144BF0C
:1001800004680C607047000000230024002500264E
:10019000103A28BF78C1FBD8520728BF30C148BFEA
:1001A0000B6070471FB51FBD10B510BD00F058F8AB
:1001B0001146FFF7F7FF02F011FD00F076F803B4E7
:1001C000FFF7F2FF03BC00F07DF80000094880470C
:1001D00009480047FEE7FEE7FEE7FEE7FEE7FEE729
:1001E000FEE7FEE7FEE7FEE704480549054A064B41
:1001F00070470000F725000831010008280400209E
:10020000280A002028060020280600204FF00002BF
:1002100000B5134694469646203922BFA0E80C50FC
:10022000A0E80C50B1F12001BFF4F7AF090728BFD7
:10023000A0E80C5048BF0CC05DF804EB890028BF53
:1002400040F8042B08BF704748BF20F8022B11F07C
:10025000804F18BF00F8012B7047704770477047F8
:10026000754600F02BF8AE4605006946534620F06F
:100270000700854618B020B5FFF7B6FFBDE820405F
:100280004FF000064FF000074FF000084FF0000B52
:1002900021F00701AC46ACE8C009ACE8C009ACE805
:1002A000C009ACE8C0098D46704710B50446AFF3ED
:1002B00000802046BDE81040FFF781BF004870472E
:1002C000C403002001491820ABBEFEE7260002004F
:1002D0007047FEE710B504210C4802F0FFF8C0B2E9
:1002E0000028F8D0094B0A4C187820705968012969
:1002F00000D0022161709A68012A00D00022A27009
:10030000DB686360BDE8104002F08CB8A8030020F1
:1003100010000020014800F0E9B80000640300204C
:10032000014800F0E3B8000020030020014800F07D
:10033000DDB8000098020020014800F0D7B80000A6
:10034000DC02002030B590F840500124AC40C56B71
:100350006C60046863604368102B036803D0996085
:100360000068C26030BD9A600068C16030BD7047EF
:1003700072B6FEE710B590F821100022022905D0D0
:100380000421816380F82020012010BD01680B68E2
:1003900023F00E030B6001680B6823F001030B6070
:1003A00090F84030C46B012101FA03F3636080F8D8
:1003B000211080F82020104610BD00002DE9F05FCC
:1003C00090F821100024022903D004218163012424
:1003D00085E001680A6822F00E020A6001680A6876
:1003E00022F001020A603F4E3E4FB215DFF8F4C022
:1003F000DFF8F090DFF8ECA0DFF8E8B0DFF8E4E039
:100400000168783F13011502ACF1640CA9F15009A1
:10041000AAF13C0AABF1280BAEF1140E4FF4801890
:10042000B14227D9B9420ED0614512D049451DD0FD
:10043000514518D0594518D0714501D1424615E0B3
:10044000294EB14201D1012210E0274E1436B142AB
:1004500001D110220AE0244E2836B14206D0224AA9
:100460003C32914201D11A4600E02A461E49091F3A
:100470000A602BE0B94213D0614517D0494522D01C
:1004800051451DD059451DD0714501D142461AE054
:10049000B14202D14FF0807215E0134EB14201D14A
:1004A000012210E0104E1436B14201D110220AE0B0
:1004B0000D4E2836B14206D00B4A3C32914201D152
:1004C0001A4600E02A46074980394A60012180F82F
:1004D0002110002180F82010416B01B1884720468F
:1004E000BDE8F09F80000240080402402DE9F05F63
:1004F000C16B0A6801680B68046C4FF0040808FAC5
:1005000004F8844D844E854FDFF814C2DFF814924E
:10051000DFF814A2DFF814B2DFF814E218EA020FD1
:1005200065D05FEA437862D50A68920603D40A6808
:1005300022F004020A60DFF8F0814FF48062016863
:1005400008F1140813011402414524D9A9420DD021
:10055000B1420FD0B9421AD0614515D0494515D0E6
:10056000514501D1120312E0594501D104220EE098
:10057000714501D140220AE06D4D1435A94206D0E3
:100580006B4A2832914201D11A4600E0224667495F
:10059000091F0A6029E0A94213D0B14215D0B9421F
:1005A00020D061451BD049451BD0514502D14FF4A5
:1005B000800217E0414502D14FF0806212E05945B8
:1005C00001D104220EE0714501D140220AE0584DCC
:1005D0001435A94206D0564A2832914201D11A4612
:1005E00000E022464B4908394A60C16A71E04FF089
:1005F000020808FA04F818EA020F70D05FEA83785C
:100600006DD50A68920606D40A6822F00A020A60CA
:10061000012180F82110DFF810814FF40072016889
:1006200008F1140813011402414524D9A9420DD040
:10063000B1420FD0B9421AD0614515D0494515D005
:10064000514501D1120312E0594501D102220EE0B9
:10065000714501D120220AE0354D1435A94206D05A
:10066000334A2832914201D11A4600E022462F49EE
:10067000091F0A6029E0A94213D0B14215D0B9423E
:1006800020D061451BD049451BD0514502D14FF4C4
:10069000001217E0414502D14FF0007212E05945B7
:1006A00001D102220EE0714501D120220AE0204D45
:1006B0001435A94206D01E4A2832914201D11A4669
:1006C00000E02246134908394A60002180F82010D2
:1006D000816A00291CD0BDE8F05F0847FFE70825C4
:1006E000A540154214D01A0712D50A6822F00E024E
:1006F0000A6090F84020C36B012101FA02F25A60AF
:10070000816380F82110002180F82010016BE0E760
:10071000BDE8F09F080002401C000240300002408B
:1007200044000240580002406C00024008040240AD
:100730001C04024030B560B11A4B026814219A4281
:1007400009D2194B1344B3FBF1F189000164174935
:100750000AE0012030BD134B5B421344B3FBF1F1BF
:10076000890001640F490839C163022180F8211012
:10077000136843F6F0718B43F0E901142143D0E98B
:1007800002452C4321430469214344692143846980
:10079000214319431160002141630122427701770F
:1007A000084630BD08040240F8FFFDBF00000240CB
:1007B00070B5044690F82000002501280CD00120D7
:1007C00084F8200094F821600020012E06D084F8DF
:1007D00020000225284670BD022070BD022684F844
:1007E0002160A0632068066826F0010606602046A6
:1007F000FFF7A8FDE06A00282068016802D041F0F8
:100800000E0106E021F0040101602068016841F05A
:100810000A0101602068016841F001010160D9E727
:1008200070B5044600F010F90546601C02D004487B
:100830000078044400F008F9401BA042FAD370BDD0
:10084000000000202DE9F84FDFF8C8910024A9F13D
:10085000040B23460F2709F1040AABF1040ED1E083
:100860000125A54006EA0502AA4276D1DFF8A8C113
:100870004E68A6EB0C0866452BD00DDC032E34D059
:1008800005DC36B3012E19D0022E2FD11BE0112E1C
:1008900016D0122E2AD119E0B8F5881F19D006DC1F
:1008A000B8F5803F15D0B8F5801F1FD111E0B8F51D
:1008B000001F0ED0B8F5041F18D10AE0CB6815E070
:1008C000CB681B1D12E0CB6808330FE0CB680C33FC
:1008D0000CE08B682BB1012B4FF0080303D045616E
:1008E00004E0042302E0056100E00023FF2A01D8B0
:1008F000064601E000F104064FEA840501D9A5F19E
:100900002005D6F8008007FA05FC28EA0C0803FA4F
:1009100005F548EA0508C6F800804D68ED0070D579
:100920003E4DAE6946F00106AE61AD6924F00306A6
:1009300005F0010500953A4D06EB050CDCF8085072
:10094000A607360F07FA06F825EA0805DFF8D4806F
:10095000404503D14FF0000825E052E0DFF8C880A1
:10096000404502D14FF001081DE0DFF8C08040454E
:1009700002D14FF0020816E0DFF8B480404502D102
:100980004FF003080FE0DFF8AC80404502D14FF094
:10099000040808E0DFF8A080404502D14FF00508C8
:1009A00001E04FF0060808FA06F848EA0508CCF816
:1009B00008804D68D9F80060ED024D4601D5164318
:1009C00000E096432E604D68DAF80060AD025546AF
:1009D00001D5164300E096432E604D68DBF80060B9
:1009E000AD035D4601D5164300E096432E604D6889
:1009F000DEF80060ED03754601D5164300E096432E
:100A00002E60641C0A681646E2407FF429AFBDE8F8
:100A1000F88F00000804014000001110001002408F
:100A20000000014000080140000C0140001001409E
:100A30000014014000180140001C01400AB101618E
:100A400070470904FBE70000014880687047000018
:100A500000000020024881680278114481607047DC
:100A600000000020074810B5016841F01001016046
:100A7000032000F075F80F2000F006F800F024F8CD
:100A8000002010BD0020024070B50D4D04464FF40B
:100A90007A712878B1FBF0F00A490968B1FBF0F0EF
:100AA00000F0DCFA48B9102C07D200222146501E73
:100AB00000F036F800206C6070BD012070BD0000B1
:100AC000000000200C0000200C4808B5816941F0AE
:100AD00001018161816901F001010091C16941F069
:100AE0008051C161C06900F08050009004484168A5
:100AF00021F0E06141F00071416008BD001002404A
:100B000000000140002809DB00F01F020121914094
:100B10004009800000F1E020C0F80011704700009B
:100B2000F0B40E4B1B680C46C3F30223C3F1070558
:100B3000042D00D90425191D072901D2002300E046
:100B4000DB1E012606FA05F1491E214099409E4010
:100B5000761E16403143F0BC02F02FB80CED00E0D9
:100B6000064900F0070208684FF6FF03184040EA04
:100B70000220034A10430860704700000CED00E0BB
:100B80000000FA052DE9F0470F46050061D0434EFD
:100B9000306800F00700B84209D2306820F0070042
:100BA00038433060306800F00700B84251D12868FF
:100BB0003B4C810712D5400703D5606840F4E060E4
:100BC00060602878000703D5606840F4605060607A
:100BD0006068A96820F0F000084360602878C007CA
:100BE00028D06868012810D02168022810D0890711
:100BF00000292EDA616821F0030101436160FFF7EB
:100C000023FF804641F288390DE021688903EFE730
:100C10008901EDE7FFF718FFA0EB0801494502D96C
:100C20000320BDE8F0876068696800F00C00B0EB55
:100C3000810FEFD1306800F00700B8420BD930685F
:100C400020F0070038433060306800F00700B842F9
:100C500001D00120E5E72878400705D56068E968FC
:100C600020F4E060084360602878000706D56068DB
:100C7000296920F4605040EAC100606000F038F853
:100C80006168084AC1F30311515CC8400649086015
:100C900006480068FFF7F8FE0020C2E70020024087
:100CA00000100240742C00080C00002004000020FA
:100CB0000448054900684968044AC1F30221515CAF
:100CC000C84070470C00002000100240842C00082F
:100CD0000448054900684968044AC1F3C221515CCF
:100CE000C84070470C00002000100240842C00080F
:100CF0000E4A51680E4801F00C03042B11D0082B4A
:100D00000FD10C48C1F38343C903C05C0AD55168B5
:100D1000084AC1F34041921E515C054A5043B0FB62
:100D2000F1F070470449484370470000001002404A
:100D300000127A00642C000800093D002DE9F84FEC
:100D4000040070D02078C04DC00749D06868C0F357
:100D50008100012807D06868C0F38100022809D10A
:100D60006868C00306D52868800339D56068002804
:100D7000E7D035E06068B0F5803F0BD010B1B0F53A
:100D8000A02F11D0286820F480302860286820F433
:100D9000802002E0286840F480302860606890B1CC
:100DA000FFF752FE06460AE0286840F480202860DB
:100DB000F0E700BFFFF748FE801B642873D828685F
:100DC0008003F7D50CE0FFF73FFE064605E000BFC5
:100DD000FFF73AFE801B6428F0D828688003F7D418
:100DE00020789A4E80074FF001094FF0000839D55E
:100DF000686810F00C0F07D06868C0F38100022803
:100E000009D16868C00306D42868800714D5206912
:100E1000012808D110E02069B0B1C6F80090FFF7B2
:100E200013FE074605E00AE1FFF70EFEC01B02288D
:100E3000C4D828688007F7D52868616920F0F800D1
:100E400040EAC10028600DE0C6F80080FFF7FCFD15
:100E5000074604E0FFF7F8FDC01B022823D82868E6
:100E60008007F7D4207800072CD57948A169D9B13B
:100E7000C0F80090FFF7E8FD074604E0FFF7E4FD47
:100E8000C01B02280FD8686A8007F7D571484FF455
:100E9000FA510068B0FBF1F0009000BF0098411ECD
:100EA0000091FAD20EE080E0C0F80080FFF7CCFDA0
:100EB000074604E0FFF7C8FDC01B022875D8686A22
:100EC0008007F7D42078400760D5E8690027C00084
:100ED00008D4E86940F08050E861E869012700F033
:100EE000805000905C480168C90513D401688346AE
:100EF00041F480710160FFF7A7FD824606E000BF64
:100F0000FFF7A2FDA0EB0A0064284ED8DBF8000032
:100F1000C005F5D5E06801280AD008B1052813D02E
:100F2000286A20F001002862286A20F0040002E00C
:100F3000286A40F001002862E06841F2883B98B1DD
:100F4000FFF782FD82460BE0286A40F00400286229
:100F5000EEE700BFFFF778FDA0EB0A0159455AD82C
:100F6000286A8007F6D50CE0FFF76EFD824605E0A3
:100F7000FFF76AFDA0EB0A0159454CD8286A8007A3
:100F8000F6D41FB1E86920F08050E861E06988B3C9
:100F90006968C1F38101022944D00228C6F8608043
:100FA00004D0FFF751FD044638E034E0FFF74CFD74
:100FB000074604E0FFF748FDC01B02282BD828682D
:100FC0008001F7D4206AB0F5803F05D16868A16838
:100FD00020F4003008436860D4E9080108436968D8
:100FE00021F4741108436860C6F86090FFF72CFD87
:100FF000044606E025E000BFFFF726FD001B02289F
:1010000009D828688001F7D51BE000BFFFF71CFD59
:10101000001B022802D90320BDE8F88F2868800150
:10102000F4D40EE00128F7D06868226A00F4803119
:10103000914204D1616A00F47010884201D001200D
:10104000EAE70020E8E7000000100240000042420A
:10105000800442420C0000200070004010B5401E89
:10106000B0F1807F01D3012010BD4FF0E02460611A
:101070000F21601701F0A1FD0020A0610720206171
:10108000002010BD7047704710B590F83C20012A31
:1010900022D0012280F83C20CA688C6822F4407279
:1010A00022434C6822F4806222430C6822F40062DE
:1010B00022430C6922F4805222434C6922F40052EC
:1010C0002243C969002322F480420A4301684A642A
:1010D00080F83C30002010BD022010BD70B590F8A3
:1010E0003C20012A2CD0012480F83C40022280F8C8
:1010F0003D2003685A689D6822F070060A683243F2
:101100005A60104B02689A420ED00F4B9A420BD095
:10111000B2F1804F08D00D4B9A4205D00C4B9A4249
:1011200002D00C4B9A4204D1496825F08003194340
:10113000916080F83D40002180F83C10084670BD69
:10114000022070BD002C014000340140000400402A
:1011500000080040000C004010B5040003D094F8D3
:101160003D0010B107E0012010BD002084F83C00D4
:10117000204600F01FF8022084F83D00211D206861
:1011800001F052FA012084F8460084F83E0084F809
:101190003F0084F8400084F8410084F8420084F85D
:1011A000430084F8440084F8450084F83D000020A2
:1011B00010BD000008B5274A0168274891420ED1AA
:1011C000816941F4006181618069002200F400605E
:1011D000009011461920FFF7A3FC192034E0B1F16B
:1011E000804F11D01D4A91421DD1C16941F01001BB
:1011F000C161C069002200F0100000901146362045
:10120000FFF78EFC36201FE0C16941F00101C1618A
:10121000C069002200F00100009011461C20FFF779
:101220007FFC1C2010E00E4A914211D1816941F4EB
:10123000005181618069002200F400500090114645
:101240002C20FFF76DFC2C20BDE80840FFF75ABCAE
:1012500008BD0000002C01400010024000100040BA
:101260000034014090F83D10012901D00120704761
:10127000022180F83D100168CA6842F00102CA608C
:1012800000680E4988420ED00D4988420BD0B0F15B
:10129000804F08D00B49884205D00B49884202D0C4
:1012A0000A49884204D1816801F00701062903D068
:1012B000016841F00101016000207047002C0140ED
:1012C000003401400004004000080040000C0040D1
:1012D00070B5044690F83C000025012817D001267F
:1012E00084F83C60022084F83D002068826822F087
:1012F000770222F47F4282600868502838D00DDCE3
:1013000020284FD005DC90B3102811D14AE00220EC
:1013100070BD302846D040280AD13BE060282FD04D
:1013200070280DD0B0F5805F03D0B0F5005F12D00B
:10133000012584F83D60002084F83C00284670BDFB
:10134000CB68D1E90121206801F0C9F920688168E2
:1013500041F0770109E0CB68D1E90121206801F073
:10136000BEF92068816841F480418160E1E719E0BD
:10137000CA684968206801F087FA5021206806E0B1
:10138000CA684968206801F090FA6021206801F07D
:10139000B0F9CEE7CA684968206801F075FA4021C3
:1013A0002068F4E7226801461046F0E770472DE90F
:1013B000F04104460068C66805694FF00007A907B8
:1013C00013D5B10711D5F91E0161012020772068DE
:1013D00080698007204602D0FFF7E8FF04E000F0B4
:1013E000DDF8204600F06FF92777680716D57007FB
:1013F00014D521686FF0040008610220207720686E
:10140000806910F4407F204602D0FFF7CFFF04E050
:1014100000F0C4F8204600F056F92777280715D5C4
:10142000300713D521686FF0080008610420207789
:101430002068C0698007204602D0FFF7B7FF04E0AC
:1014400000F0ACF8204600F03EF92777E80616D504
:10145000F00614D521686FF010000861082020778D
:101460002068C06910F4407F204602D0FFF79EFF3D
:1014700004E000F093F8204600F025F92777E8070C
:1014800008D0F00706D021686FF0010008612046FF
:1014900000F074F9280608D5300606D521686FF0EB
:1014A000800008612046FFF7EDFD680608D570064C
:1014B00006D521686FF040000861204600F0D4F99D
:1014C000A8060AD5B00608D521686FF0200008618B
:1014D0002046BDE8F041FFF7D6BDBDE8F081000031
:1014E00000B585B000210091019102910391244B38
:1014F0000268244902209A420ED18A6942F004020D
:101500008A618969039001F004010491C101CDE968
:10151000001069461C4813E0B2F1804F14D01B4BF9
:101520009A420FD18A6942F010028A618969039058
:1015300001F0100104914021CDE9001069461448E2
:10154000FFF780F905B000BD8A6942F008028A61A0
:101550008969039001F0080104914FF40061CDE91D
:10156000001069460B48FFF76DF90B48416821F4FC
:10157000407141F0E06141F400714160E2E7000038
:10158000002C0140001002400008014000340140DE
:1015900000100140000C014000000140704770B590
:1015A000044690F83C0000260D4601280FD001208B
:1015B00084F83C006AB1042A1DD0082A2FD00C2AD6
:1015C0003FD00126002084F83C00304670BD022048
:1015D00070BD206801F096F82068816941F008012B
:1015E00081612068816921F004018161206881693D
:1015F0002A69114311E0206801F0B4F8206881697C
:1016000041F4006181612068816921F48061816118
:10161000206881692A6941EA02218161D2E7206854
:1016200001F0D6F82068C16941F00801C161206865
:10163000C16921F00401C1612068C1692A691143AF
:1016400011E0206801F0F8F82068C16941F40061F8
:10165000C1612068C16921F48061C1612068C169EC
:101660002A6941EA0221C161ACE710B5040003D048
:1016700094F83D0010B107E0012010BD002084F86F
:101680003C00204600F01EF8022084F83D00211D99
:10169000206800F0C9FF012084F8460084F83E006D
:1016A00084F83F0084F8400084F8410084F8420048
:1016B00084F8430084F8440084F8450084F83D0031
:1016C000002010BD7047704710B50446022249B192
:1016D00004290ED0082913D094F84100012816D00F
:1016E000012010BD94F83E000128F9D184F83E2075
:1016F0000FE094F83F000128F2D184F83F2008E081
:1017000094F840000128EBD184F8402001E084F8EF
:1017100041200122206800F0D5FF13492068134AB8
:10172000884201D0904203D1436C43F400434364A8
:10173000206888420DD090420BD0B0F1804F08D085
:101740000B49884205D00B49884202D00A49884299
:1017500004D1816801F00701062903D0016841F036
:1017600001010160002010BD002C01400034014047
:101770000004004000080040000C00402DE9F0414A
:101780003449354D354E364F364C88422BD1211DCC
:10179000081F01F046FA04F10C01081F01F041FA9C
:1017A00004F11401081F01F03CFA206830B12068F0
:1017B0002968C862E860296840084863A06830B1B9
:1017C000A0683168C862F060316840080864206928
:1017D000002806D020693968C862F8603968400876
:1017E0004863BDE8F0810021A8420FD1A069401CE8
:1017F000A061E2699042F4D3002AF2D0A161BDE871
:10180000F04100220121104600F06EBDB0420FD120
:10181000206A401C2062626A9042E2D3002AE0D033
:101820002162BDE8F04100220121104600F07CBD9C
:10183000B842D6D1A06A401CA062E26A9042D0D3DE
:10184000002ACED0A162BDE8F0410022012110465D
:1018500000F092BD30010020E80000207801002057
:10186000A00000206C000020704770477047000007
:10187000F8B5016804460868CA684B6910F00F0F94
:101880004FF0000559D003F0010602F4907737437A
:1018900065D0C10705D0D10503D5616C41F00101C8
:1018A0006164410705D5D90703D0616C41F002019D
:1018B0006164810705D5D90703D0616C41F004014B
:1018C0006164010707D502F02001314303D0616C48
:1018D00041F008016164616C00293AD0800604D5AA
:1018E000900602D5204601F081F820684069616CBD
:1018F000C0F38010090700D460B3204601F041F81E
:1019000020684069400621D52068143050E8001F47
:1019100021F0400140E80012002AF5D1E06BA8B1A7
:101920006D494163E06BFEF749FD002811D0E06B83
:10193000416B01B0BDE8F040084783060FD5930620
:101940000DD52046BDE8F84001F050B82046FFF71D
:101950008DFFF8BD2046FFF789FF6564F8BD266B53
:101960002023012E7CD1C6067AD5D60678D5086804
:101970004868009048694FF00206400640D5E16B88
:10198000086840680004000CE8D0A28D8242E5D9C6
:10199000E085886920282DD020680C3050E8001F91
:1019A00021F4807140E80012002AF5D1206814303B
:1019B00050E8001F21F0010140E80012002AF5D193
:1019C0002068143050E8001F21F0400140E8001268
:1019D000002AF5D184F84230256320680C3050E8A5
:1019E000001F21F0100140E80012002AF5D1E06B41
:1019F000FEF7C0FC6663A08DE18D401A81B22AE03B
:101A0000A08DE18D401A81B2E08D0028A6D000297A
:101A1000A4D022680C3252E8000F20F4907042E803
:101A20000007002FF5D12068143050E8002F22F075
:101A3000010240E80027002FF5D184F842302563E9
:101A400020680C3050E8002F22F0100240E80023FC
:101A5000002BF5D166632046FFF707FFF8BDFFE7CF
:101A600005062BD5150629D594F841002128F5D176
:101A7000A068B0F5805F01D12069B0B1206A411C37
:101A80002162216800784860E08C401E0004000C50
:101A9000E084E3D12068C16821F08001C160206842
:101AA000C16841F04001C160D8E7206A0088C0F3F6
:101AB00008004860206A801C2062E5E74006CDD51A
:101AC0005006CBD5CA68204622F04002CA6084F88E
:101AD000413000F0B9F9C1E7DD28000870B5040015
:101AE00004D094F84100002510B106E0012070BD3B
:101AF00084F84050204600F023F8242084F8410068
:101B00002068C16821F40051C160204600F0D0FF78
:101B10002068016921F4904101612068416921F048
:101B20002A0141612068C16841F40051C1606564C7
:101B3000202084F8410084F842006563002070BDD5
:101B40002DE9F04385B00025009501950295039598
:101B50000446774E0368774802210322764F4FF000
:101B60000408B3422DD1C36943F48013C361C36930
:101B700003F480130493836943F010038361836942
:101B800003F010030493836943F0200383618069A9
:101B9000039200F020000490C802CDE900016946DC
:101BA0003846FEF74FFECDE9008569466348029549
:101BB000FEF748FE002211463520FEF7B1FF352022
:101BC00052E0DFF87CC180264FF01009634550D108
:101BD000C36943F40033C361C36903F4003304935E
:101BE000836943F0040383618069CDE9008100F0DB
:101BF0000400CDE90320534F69463846FEF722FE24
:101C00000820CDE90005694638460295FEF71AFE20
:101C10004E4F4D48C7E90005C7E902563D617D6159
:101C2000BD613846FD61FEF785FD08B1FEF7A0FBFA
:101C3000E7637C62454F444844371430C7E9025695
:101C40003D617D61BD61FD61C7E900093846FEF770
:101C500071FD08B1FEF78CFBA76300221146262018
:101C60007C62FEF75DFF2620FEF74CFF05B0BDE865
:101C7000F083DFF8DCC06345F8D1C36943F4802307
:101C8000C361C36903F480230493836943F01003A1
:101C900083618069039200F0100004904FF480602B
:101CA000CDE9000169463846FEF7CCFD4FF40060EF
:101CB000CDE90005694638460295FEF7C3FD254883
:101CC000416821F0300141F0E06141F010014160D4
:101CD0001E4F1D4888373C38C7E90005C7E9025642
:101CE0003D617D61BD613846FD61FEF723FD08B1B0
:101CF000FEF73EFBE7637C62144F1348CC37503845
:101D0000C7E902563D617D61BD61FD61C7E900091A
:101D10003846FEF70FFD08B1FEF72AFBA763002245
:101D2000114627207C62FEF7FBFE27209CE700007F
:101D3000005000400010024000100140001401401B
:101D400000440040000801406C000240980200205E
:101D5000004800400000014090F84230202B01D0A4
:101D60000220704721B11AB10023036300F0FCBECA
:101D70000120704710B50068114988421ED1114CEE
:101D8000207801280DD1A178FE2905D00E4A60786F
:101D90001154401C607004E0AA2000F0C1FB002038
:101DA0002070A078FF2801D1012020700549012270
:101DB000BDE81040891C0548FFF7CEBF10BD0000EC
:101DC000004800409C000020B80300205002002082
:101DD00070B5044690F84100202801D0022070BD63
:101DE00049B342B32162A284E284002060642123CB
:101DF00084F84130A56B114BAB62A56B104BEB62C5
:101E0000A56B104B2B63A36B5863256813462A1DE3
:101E1000A06BFEF7CDFC21686FF0400008602068E1
:101E2000143050E8001F41F0800140E80012002A01
:101E3000F5D1002070BD012070BD000037290008D9
:101E400079290008ED28000870477047FEE710B5B3
:101E500000F08CFABDE81040052100F06BBBFEF7E6
:101E600039BA70477047704770477047154808B5D2
:101E7000416941F0010141614069002200F0010027
:101E8000009011460C20FEF74BFE0C20FEF73AFEA8
:101E9000002211460D20FEF743FE0D20FEF732FE14
:101EA000002211461020FEF73BFE1020FEF72AFE0E
:101EB000002211461120FEF733FEBDE80840112034
:101EC000FEF720BE001002402DE9F04F85B000243F
:101ED0003A480094019402940394816941F01001FE
:101EE0008161816901F010010491816941F0200153
:101EF0008161816901F020010491816941F004014F
:101F00008161816901F004010491816941F0080156
:101F100081618069DFF8A89000F008004FF46875CF
:101F20000490002229464846FEF788FDDFF894A079
:101F300000224BF207415046FEF780FDDFF888B0E3
:101F40004FF4C068002241465846FEF777FD0F2047
:101F500002268DE8510069464846FEF773FC33209F
:101F60008DE8510069465846FEF76CFC0095032742
:101F700001250397CDE9015469464846FEF762FC06
:101F800003960095CDE9015469465046FEF75AFC88
:101F90004BF20640CDE90005CDE9024769465046BF
:101FA000FEF750FCCDF800800397CDE90154694657
:101FB0005846FEF747FC05B0BDE8F08F0010024020
:101FC00000100140000C01400008014010B596B01F
:101FD00000240F9410941194129413941C2108A8B7
:101FE0001494FEF713F920216846FEF70FF92848EC
:101FF000264901604821C0E901144FF41C71C0E971
:10200000031444618461FFF7A7F808B1FEF7B0F943
:102010004FF480500F900FA91D48FFF759F908B1F0
:10202000FEF7A6F91A48FFF720FB08B1FEF7A0F962
:10203000139413A916481494FFF750F808B1FEF74B
:1020400097F96020CDE908040A940B940C940D9440
:10205000002208A90E480E94FFF7A1FA08B1FEF776
:1020600087F900944FF40050CDE9044002940194A4
:102070000394694606480794FFF706F808B1FEF78F
:1020800077F90348FFF72CFA16B010BD002C014079
:10209000A000002010B58EB0002407940894099485
:1020A0000A940B941C2168460C94FEF7AFF81E4866
:1020B0004FF0804101604721C0E901144FF41C71C9
:1020C000C0E903148461FFF747F808B1FEF750F93F
:1020D0004FF48050079007A91348FFF7F9F808B1AB
:1020E000FEF746F91048FFF7C0FA08B1FEF740F9CD
:1020F0000B940BA90C480C94FEF7F0FF08B1FEF707
:1021000037F96020CDE9000402940C2269460648A4
:102110000494FFF744FA08B1FEF72AF90248FFF7E2
:10212000DFF90EB010BD0000E80000201CB500244F
:102130000F4800940D490194016041F61F41C0E928
:10214000011440F2E7318461C160FFF705F808B17E
:10215000FEF70EF90094694605480194FEF7BEFFAC
:10216000002801D0FEF704F91CBD0000001000405B
:102170003001002010B596B000240F9410941194F3
:10218000129413941C2108A81494FEF73FF8202100
:102190006846FEF73BF82848264901604721C0E918
:1021A00001144FF41C71C0E9031444618461FEF70B
:1021B000D3FF08B1FEF7DCF84FF480500F900FA961
:1021C0001D48FFF785F808B1FEF7D2F81A48FFF767
:1021D0004CFA08B1FEF7CCF8139413A916481494DE
:1021E000FEF77CFF08B1FEF7C3F86020CDE90804D4
:1021F0000A940B940C940D94002208A90E480E9496
:10220000FFF7CDF908B1FEF7B3F800944FF4005092
:10221000CDE904400294019403946946064807946A
:10222000FEF732FF08B1FEF7A3F80348FFF758F9AD
:1022300016B010BD00340140780100200C4810B5E4
:102240000A4901604FF4E1314160002181600C22B4
:10225000C160C0E904128161C161FFF73FFC002841
:1022600003D0BDE81040FEF783B810BD0050004019
:10227000C00100200C4810B50A4901604FF4E1315B
:102280004160002181600C22C160C0E904128161BB
:10229000C161FFF723FC002803D0BDE81040FEF722
:1022A00067B810BD00440040080200200C4810B57B
:1022B0000A4901604FF4E1314160002181600C2244
:1022C000C160C0E904128161C161FFF707FC002809
:1022D00003D0BDE81040FEF74BB810BD00480040E9
:1022E00050020020FEE7000070B514460D4601289C
:1022F00013D000220A4E4FF480513046FEF79EFB69
:10230000002271143046FEF799FB2A4631153046FB
:10231000FEF794FB0348446070BD0122EAE7000029
:10232000000C01406C00002070B514460D460128D9
:1023300013D000220A4E80213046FEF77FFB002298
:10234000B1153046FEF77AFB2A464FF400410548A6
:10235000FEF774FB0448C46070BD0122EAE7000088
:1023600000100140000C01406C0000200148806A10
:10237000704700006C0000202DE9F04114460D4626
:10238000012816D05FF000020B4F4FF40076314663
:102390003846FEF753FB002271003846FEF74EFB2D
:1023A0002A4631460548FEF749FB05484461BDE829
:1023B000F0810122E8E70000000801400010014020
:1023C0006C00002010B500211248FFF77DF90C21A8
:1023D0001148FFF779F900211048FFF775F90D480A
:1023E000FEF740FF0C48FEF73DFF0C48FEF73AFFB2
:1023F0000B48FEF737FF07494FF0FF3009680861C7
:10240000054A6FF00C0112681161044909680861FE
:1024100010BD0000A0000020E8000020780100208E
:102420003001002070B5164601290FD01C464FF42C
:102430001C720E4D01280CD0022810D0032804D1A4
:1024400031460120FFF798FFEC6270BD00241A4668
:10245000EFE731460120FFF747FFEC6170BD3146E1
:102460000120FFF761FF6C6270BD00006C0000206E
:10247000FEE770477047000070B50B4D002400BFA9
:10248000FEF7E2FA04EB440205EB82018B68CE888A
:10249000C31AB34203D3886055F822008047641CF6
:1024A000E4B2072CECD370BD1800002030B500203A
:1024B000094A4FF47A74012500EB400102EB8101D7
:1024C0008B88B4FBF3F3CB8003B9CD80401CC0B242
:1024D0000728F1D330BD0000180000200B4B10B5C9
:1024E0001A78052A01D0002010BD0022491E04E000
:1024F0009C18647840F82240521C8A42F8D35979DB
:102500001A7941EA0221C160012010BDB803002000
:102510000246012000E05043491EFCD270470000F3
:1025200001B5012269460248FFF752FC08BD0000D0
:10253000500200202DE9F04100240D4606460A27EE
:102540000FE0291B0A20491EFFF7E2FFB6FBF0F05F
:10255000B0FBF7F107FB11003030FFF7E1FF641C1F
:10256000E4B2AC42EDD3BDE8F081000010B5012229
:1025700005490648FFF7F0FB03490122BDE810407A
:10258000491E0348FFF7E8BB9F0000200802002017
:1025900050020020FEF75EBA30B58FB028216846A1
:1025A000FDF734FE14210AA8FDF730FE01210804CE
:1025B000CDE900100024029402250491CDE90750D2
:1025C0004FF4E01009906846FEF7B8FB08B172B608
:1025D000FEE70F20CDE90A054FF48060CDE90C40FD
:1025E00002210AA80E94FEF7CDFA002801D072B697
:1025F000FEE70FB030BD70470148FEF7D8BE0000BF
:10260000A00000200148FEF7D2BE0000E800002034
:102610000148FEF7CCBE0000300100200148FEF763
:10262000C6BE000078010020F0B50268204C214DA4
:10263000214E224F224B4FF0804CA04209D09842AD
:1026400007D0604505D0A84203D0B04201D0B842BF
:1026500004D122F0700E4A6842EA0E02A04209D06C
:10266000984207D0604505D0A84203D0B04201D0BF
:10267000B84203D122F44075CA682A434D6922F05A
:1026800080022A4302608A68C2620A688262A042AB
:1026900001D0984201D109690163012141610169B9
:1026A000C90703D0016921F001010161F0BD0000FB
:1026B000002C01400004004000080040000C0040D5
:1026C0000034014010B501F01F030121046A994054
:1026D0008C430462016A9A401143016210BD10B537
:1026E000846842EA032224F47F440A43224382603E
:1026F00010BD826822F070020A4342F00701816037
:1027000070470000F0B5036A026A22F0010202621B
:1027100042688469124E24F073050C682C4323F040
:1027200002058B682B430D4DA84201D0B04205D164
:1027300023F00807CB683B4323F00403A84201D0F1
:10274000B04205D14D6922F4407215438A692A438B
:1027500042608461496841630362F0BD002C01401E
:1027600000340140F0B5026A036A23F010030362EB
:10277000436884690D6824F4E64444EA05248D68BE
:1027800022F0200242EA05120F4D104EA84201D05D
:10279000B04206D1CF6822F0800242EA071222F04E
:1027A0004002A84201D0B04207D14D6923F44063F2
:1027B00043EA85038D6943EA850343608461496880
:1027C00081630262F0BD0000002C01400034014032
:1027D000F0B5026A036A23F4807303624368C46934
:1027E00022F4007224F073050C68124E2C438D689D
:1027F00042EA05220E4DA84201D0B04206D1CF6870
:1028000022F4006242EA072222F48062A84201D048
:10281000B04207D14D6923F4405343EA05138D6953
:1028200043EA05134360C4614968C1630262F0BDB5
:10283000002C01400034014030B5046A026A22F4E1
:10284000805202624268C3690D6823F4E64343EA9A
:1028500005238D6824F4005444EA0534084DA84249
:1028600002D0084DA84204D14D6922F4804242EAC8
:1028700085124260C36149680164046230BD000092
:10288000002C01400034014010B5036A046A24F0B2
:1028900001040462846924F0F00444EA021423F081
:1028A0000A020A438461026210BD10B5036A046A19
:1028B00024F010040462846923F0A00324F470441B
:1028C00044EA023243EA01118261016210BD000054
:1028D0000148FEF7CDBF0000C001002010B5406ADE
:1028E0000021C185C184FEF7C1FF10BD70B5446AE7
:1028F0002068406994F84110C0F3C01000252129D8
:1029000004D118B1E584204600F062F820684069DF
:1029100094F84210C0F38010222904D118B1E58543
:10292000204600F02EF8606C40F0100060642046F5
:10293000FEF79CFF70BD10B50146406A0968096842
:10294000890616D40021C1840168143151E8002F92
:1029500022F0800241E80023002BF5D101680C3100
:1029600051E8002F42F0400241E80023002BF5D14E
:1029700010BDFFF769FA10BD10B5406AFFF765FAA0
:1029800010BD01680C3151E8002F22F4907241E82B
:102990000023002BF5D10168143151E8002F22F0FB
:1029A000010241E80023002BF5D1016B012909D177
:1029B00001680C3151E8002F22F0100241E8002399
:1029C000002BF5D1202180F84210002101637047CF
:1029D00001680C3151E8002F22F0C00241E80023C9
:1029E000002BF5D1202180F84110704708B590F8F0
:1029F0004210222901D0022008BD82684FF4805382
:102A00009A4201D1016921B1816A9A421BD04AB12F
:102A10000AE00268816A5268C2F308020A80816A89
:102A2000891C08E0026972B10268526802F07F02F4
:102A30000A70816A491C8162C18D491E0904090C12
:102A4000C18503D01BE002685268F1E70168CA68DB
:102A500022F02002CA600168CA6822F48072CA604B
:102A600001684A6922F001024A61202180F842107F
:102A700000214163026B012A03D0FFF77BF900209C
:102A800008BD016301680C3151E8002F22F01002EB
:102A900041E80023002BF5D101680A68D20602D56F
:102AA0000A6849680091818DFEF7DFFEE7E70000C4
:102AB00070B5044600680169E26821F44051114391
:102AC00001612169A0680843616908432168CA68F7
:102AD00041F20C639A430243CA6020684169A269CB
:102AE00021F44071114341611E492068884202D19E
:102AF000FEF7EEF801E0FEF7DBF800EBC00101EBBA
:102B00000012606864218000B2FBF0F3B3FBF1F3C4
:102B10006FF018067343B2FBF0F5B2FBF0F605EB6D
:102B20008305322303EB0515B5FBF1F5B6FBF1F692
:102B300005F0F00505EB0615B2FBF0F6B2FBF0F080
:102B4000B0FBF1F06FF01802504306EB800003EB8E
:102B50000010B0FBF1F0216800F00F0028448860FD
:102B600070BD00000038014081628285C28500216D
:102B70004164222180F84210016921B10168CA68CC
:102B800042F48072CA6001684A6942F001024A61F7
:102B90000068C16841F02001C1600020704700005A
:102BA0000148FEF765BE0000080200200148FEF75C
:102BB0005FBE000050020020FEE70907090E002852
:102BC00004DB00F1E02080F80014704700F00F00F3
:102BD00000F1E02080F8141D70470000FDF742FF6F
:102BE000FFF7DAFCFFF770F9FFF740F9FFF7EEF9AE
:102BF000FFF750FAFFF7BEFAFFF720FBFFF756FB8F
:102C0000FFF738FBFFF792FAFFF7B0FCFFF7DAFBAC
:102C10006420FDF705FEFFF749FC00BFFFF72CFC21
:102C2000FCE710B502680C684FF47A73A24209D22F
:102C30000968026804688A1A19468A4200D2114655
:102C400021440CE002680C68A24209D902680968B4
:102C50000468521A19468A4200D21146611A01606C
:102C600010BD010202030405060708090A0B0C0D3A
:102C70000E0F10100000000000000000010203040D
:102C8000060708090000000001020304AC2C00083C
:102C900000000020A00000006C0100084C2D00087E
:102CA000A000002088090000880100080100000041
:102CB000100000000000000000127A000000000078
:102CC000000000004F1E0008E803000000000000A4
:102CD000691E0008F401000000000000631E0008E7
:102CE000C8000000000000005F1E00086400000033
:102CF000000000006B1E0008320000000000000011
:102D0000651E00081400000000000000671E000897
:102D100002000000000000000000000000000000B1
:102D200000000000000000000000000000000000A3
:102D30000000000000000000000000000000000093
:0C2D400000000000000000000000000087
:0400000508000131BD
:00000001FF
