:020000040800F2
:1000000090090020890100080B1B0008191700083F
:10001000091B00088F020008612200080000000090
:10002000000000000000000000000000BD1D0008EE
:10003000C102000800000000BB1D0008BF1D000831
:10004000A3010008A3010008A3010008A301000800
:10005000A3010008A3010008A3010008A3010008F0
:10006000A3010008A3010008A3010008A3010008E0
:10007000910200089D020008A3010008A3010008E6
:10008000A9020008B5020008A3010008A3010008A6
:10009000A3010008A3010008A3010008A3010008B0
:1000A000A3010008251E0008A3010008A301000801
:1000B000311E00083D1E0008A3010008A30100082E
:1000C000A3010008A3010008A3010008A301000880
:1000D000A3010008A30100084922000855220008D6
:1000E000A3010008A3010008A301000800F002F822
:1000F00000F03AF80AA090E8000C82448344AAF188
:100100000107DA4501D100F02FF8AFF2090EBAE885
:100110000F0013F0010F18BFFB1A43F0010318473B
:10012000C0270000E0270000103A24BF78C878C13B
:10013000FAD8520724BF30C830C144BF04680C60ED
:10014000704700000023002400250026103A28BF35
:1001500078C1FBD8520728BF30C148BF0B60704739
:100160001FB51FBD10B510BD00F058F81146FFF7C0
:10017000F7FF02F087F800F076F803B4FFF7F2FF1C
:1001800003BC00F07DF8000009488047094800479B
:10019000FEE7FEE7FEE7FEE7FEE7FEE7FEE7FEE737
:1001A000FEE7FEE704480549054A064B7047000094
:1001B000211E0008ED000008900300209009002097
:1001C00090050020900500204FF0000200B5134676
:1001D00094469646203922BFA0E80C50A0E80C5067
:1001E000B1F12001BFF4F7AF090728BFA0E80C5018
:1001F00048BF0CC05DF804EB890028BF40F8042B11
:1002000008BF704748BF20F8022B11F0804F18BF7D
:1002100000F8012B7047704770477047754600F033
:100220002BF8AE4605006946534620F00700854688
:1002300018B020B5FFF7B6FFBDE820404FF000062C
:100240004FF000074FF000084FF0000B21F00701BE
:10025000AC46ACE8C009ACE8C009ACE8C009ACE801
:10026000C0098D46704710B50446AFF300802046A4
:10027000BDE81040FFF781BF004870472C03002005
:1002800001491820ABBEFEE7260002007047FEE7DA
:10029000014800F087B80000E8020020014800F0A3
:1002A00081B80000A4020020014800F07BB80000E3
:1002B00060020020014800F075B800001C02002018
:1002C000704772B6FEE710B590F82110002202299F
:1002D00005D00421816380F82020012010BD016831
:1002E0000B6823F00E030B6001680B6823F0010319
:1002F0000B6090F84030C46B012101FA03F3636096
:1003000080F8211080F82020104610BD10B590F81C
:1003100021100024022903D00421816301243DE03F
:1003200001680A6822F00E020A6001680A6822F079
:1003300001020A601A4A0168914201D1012121E0BB
:10034000174A1432914201D110211BE0144A28327D
:10035000914201D1891515E0114A3C32914201D1F7
:1003600089140FE00E4A5032914202D14FF480318D
:1003700008E00B4A6432914202D14FF4801101E04F
:100380004FF08071064A083A5160012180F821102F
:10039000002180F82010416B01B18847204610BD34
:1003A000080002402DE9F05FC16B0C6801680B6822
:1003B000D0F840C0042202FA0CF2494DDFF824A123
:1003C000494E4A4FDFF828B1DFF828E122422CD00D
:1003D0005A072AD50A68920603D40A6822F0040252
:1003E0000A600168A94201D1042219E0514501D1F6
:1003F000402215E0B14202D14FF4806210E0B942D0
:1004000002D14FF480420BE0594502D14FF48022D3
:1004100006E0714502D14FF4800201E04FF08062A6
:100420002F4908394A60C16A3BE04FF0020808FAD8
:100430000CF818EA040F4FF000094FF0010235D014
:100440005FEA837832D50B689B0605D40B6823F0EE
:100450000A030B6080F821200168A94201D1022221
:1004600019E0514501D1202215E0B14202D14FF4EB
:10047000007210E0B94202D14FF400520BE059452E
:1004800002D14FF4003206E0714502D14FF4001260
:1004900001E04FF00072124908394A6080F820905C
:1004A000816A00291AD0BDE8F05F0847082505FADF
:1004B0000CF5254212D01B0710D50B6823F00E0354
:1004C0000B6090F84010C36B02FA01F1596082632F
:1004D00080F8212080F82090016BE2E7BDE8F09FD2
:1004E000080002401C00024030000240440002406C
:1004F000580002406C00024030B528B308C81349C8
:1005000014221944B1FBF2F18900C16310498163DF
:10051000022141771A6843F6F0718A43D0E900144A
:100520002143D0E902452C43214304692143446916
:100530002143846921431143196000214163012251
:1005400042770177084630BD012030BDF8FFFDBF7E
:10055000000002402DE9F84FDFF8B8910024A9F11E
:10056000040B23460F2709F1040AABF1040EC9E07E
:100570000125A5402A40AA427DD1674ED1F804C08A
:10058000ACEB0608B44532D014DCBCF1030F3AD012
:1005900009DCBCF1000F2AD0BCF1010F1CD0BCF16A
:1005A000020F31D11DE0BCF1110F17D0BCF1120FB9
:1005B0002AD119E0B8F5881F19D006DCB8F5803FBC
:1005C00015D0B8F5801F1FD111E0B8F5001F0ED06F
:1005D000B8F5041F18D10AE0CB6815E0CB681B1DE5
:1005E00012E0CB6808330FE0CB680C330CE08B686B
:1005F0002BB1012B4FF0080303D0456104E0042325
:1006000002E0056100E00023FF2A01D8064601E070
:1006100000F104064FEA840501D9A5F12005D6F8BA
:10062000008007FA05FC28EA0C0803FA05F548EAF9
:100630000508C6F800804D68ED0062D5374DAE69FB
:1006400046F00106AE61AD6924F0030605F0010530
:100650000095334D06EB050CDCF80850A607360F65
:1006600007FA06F825EA0805DFF8B880404503D107
:100670004FF0000817E044E0DFF8AC80404502D1BD
:100680004FF001080FE0DFF8A480404502D14FF0A1
:10069000020808E0DFF89880404502D14FF00308D7
:1006A00001E04FF0040808FA06F848EA0508CCF81B
:1006B00008804D68D9F80060ED024D4601D516431B
:1006C00000E096432E604D68DAF80060AD025546B2
:1006D00001D5164300E096432E604D68DBF80060BC
:1006E000AD035D4601D5164300E096432E604D688C
:1006F000DEF80060ED03754601D5164300E0964331
:100700002E60641C0D682A46E5407FF431AFBDE8D9
:10071000F88F000008040140000011100010024092
:100720000000014000080140000C014000100140A1
:10073000001401400AB1016170470904FBE70000A1
:10074000014880687047000000000020024881686E
:10075000027811448160704700000020074810B5FE
:10076000016841F010010160032000F075F80F20CE
:1007700000F006F800F024F8002010BD0020024030
:1007800070B50D4D04464FF47A712878B1FBF0F046
:100790000A490968B1FBF0F000F0DCFA48B9102C06
:1007A00007D200222146501E00F036F800206C606F
:1007B00070BD012070BD0000000000200C00002072
:1007C0000C4808B5816941F001018161816901F03E
:1007D00001010091C16941F08051C161C06900F01F
:1007E000805000900448416821F0E06141F00071C0
:1007F000416008BD0010024000000140002809DBF4
:1008000000F01F02012191404009800000F1E0202A
:10081000C0F8001170470000F0B40E4B1B680C4686
:10082000C3F30223C3F10705042D00D90425191DC4
:10083000072901D2002300E0DB1E012606FA05F19C
:10084000491E214099409E40761E16403143F0BC1F
:1008500001F007BD0CED00E0064900F00702086852
:100860004FF6FF03184040EA0220034A1043086095
:10087000704700000CED00E00000FA052DE9F0479C
:100880000F46050061D0434E306800F00700B842C3
:1008900009D2306820F0070038433060306800F03B
:1008A0000700B84251D128683B4C810712D5400758
:1008B00003D5606840F4E06060602878000703D5E5
:1008C000606840F4605060606068A96820F0F000E3
:1008D000084360602878C00728D06868012810D0D5
:1008E0002168022810D0890700292EDA616821F0DA
:1008F000030101436160FFF723FF804641F288391D
:100900000DE021688903EFE78901EDE7FFF718FFA4
:10091000A0EB0801494502D90320BDE8F0876068D3
:10092000696800F00C00B0EB810FEFD1306800F087
:100930000700B8420BD9306820F007003843306018
:10094000306800F00700B84201D00120E5E72878C0
:10095000400705D56068E96820F4E06008436060FE
:100960002878000706D56068296920F4605040EABD
:10097000C100606000F038F86168084AC1F30311F3
:10098000515CC8400649086006480068FFF7F8FE59
:100990000020C2E70020024000100240D6220008DA
:1009A0000C00002004000020044805490068496844
:1009B000044AC1F30221515CC84070470C0000207A
:1009C00000100240E6220008044805490068496812
:1009D000044AC1F3C221515CC84070470C0000209A
:1009E00000100240E62200080E4A51680E4801F04D
:1009F0000C03042B11D0082B0FD10C48C1F38343F7
:100A0000C903C05C0AD55168084AC1F34041921E2F
:100A1000515C054A5043B0FBF1F07047044948432C
:100A2000704700000010024000127A00C622000841
:100A300000093D002DE9F84F040070D02078C04D2A
:100A4000C00749D06868C0F38100012807D06868F2
:100A5000C0F38100022809D16868C00306D5286860
:100A6000800339D560680028E7D035E06068B0F5CC
:100A7000803F0BD010B1B0F5A02F11D0286820F422
:100A800080302860286820F4802002E0286840F444
:100A900080302860606890B1FFF752FE06460AE099
:100AA000286840F480202860F0E700BFFFF748FE88
:100AB000801B642873D828688003F7D50CE0FFF703
:100AC0003FFE064605E000BFFFF73AFE801B6428A4
:100AD000F0D828688003F7D420789A4E80074FF02A
:100AE00001094FF0000839D5686810F00C0F07D0E5
:100AF0006868C0F38100022809D16868C00306D481
:100B00002868800714D52069012808D110E02069E1
:100B1000B0B1C6F80090FFF713FE074605E00AE102
:100B2000FFF70EFEC01B0228C4D828688007F7D53F
:100B30002868616920F0F80040EAC10028600DE0F3
:100B4000C6F80080FFF7FCFD074604E0FFF7F8FD5C
:100B5000C01B022823D828688007F7D42078000714
:100B60002CD57948A169D9B1C0F80090FFF7E8FD0C
:100B7000074604E0FFF7E4FDC01B02280FD8686AAF
:100B80008007F7D571484FF4FA510068B0FBF1F0D7
:100B9000009000BF0098411E0091FAD20EE080E064
:100BA000C0F80080FFF7CCFD074604E0FFF7C8FD62
:100BB000C01B022875D8686A8007F7D420784007E0
:100BC00060D5E8690027C00008D4E86940F080508B
:100BD000E861E869012700F0805000905C480168F6
:100BE000C90513D40168834641F480710160FFF7A1
:100BF000A7FD824606E000BFFFF7A2FDA0EB0A00BA
:100C000064284ED8DBF80000C005F5D5E06801285F
:100C10000AD008B1052813D0286A20F00100286204
:100C2000286A20F0040002E0286A40F001002862EF
:100C3000E06841F2883B98B1FFF782FD82460BE005
:100C4000286A40F004002862EEE700BFFFF778FD55
:100C5000A0EB0A0159455AD8286A8007F6D50CE05E
:100C6000FFF76EFD824605E0FFF76AFDA0EB0A0183
:100C700059454CD8286A8007F6D41FB1E86920F09E
:100C80008050E861E06988B36968C1F38101022995
:100C900044D00228C6F8608004D0FFF751FD044616
:100CA00038E034E0FFF74CFD074604E0FFF748FD6D
:100CB000C01B02282BD828688001F7D4206AB0F521
:100CC000803F05D16868A16820F40030084368605F
:100CD000D4E908010843696821F474110843686085
:100CE000C6F86090FFF72CFD044606E025E000BF43
:100CF000FFF726FD001B022809D828688001F7D5D8
:100D00001BE000BFFFF71CFD001B022802D90320D7
:100D1000BDE8F88F28688001F4D40EE00128F7D0F0
:100D20006868226A00F48031914204D1616A00F45B
:100D30007010884201D00120EAE70020E8E70000B7
:100D40000010024000004242800442420C00002099
:100D50000070004010B5401EB0F1807F01D301202B
:100D600010BD4FF0E02460610F21601701F079FAA7
:100D70000020A06107202061002010BD704770474F
:100D800010B590F83C20012A22D0012280F83C20A6
:100D9000CA688C6822F4407222434C6822F4806254
:100DA00022430C6822F4006222430C6922F4805230
:100DB00022434C6922F400522243C969002322F4E1
:100DC00080420A4301684A6480F83C30002010BD2C
:100DD000022010BD70B590F83C20012A26D00124D5
:100DE00080F83C40022280F83D2003685A689D68E4
:100DF00022F070060A6832435A600D4B02689A422C
:100E000008D0B2F1804F05D00A4B9A4202D00A4B6B
:100E10009A4204D1496825F080031943916080F813
:100E20003D40002180F83C10084670BD022070BD96
:100E3000002C0140000400400008004010B50400F0
:100E400003D094F83D0010B107E0012010BD002050
:100E500084F83C00204600F01FF8022084F83D0092
:100E6000211D206800F0F0FF012084F8460084F87E
:100E70003E0084F83F0084F8400084F8410084F884
:100E8000420084F8430084F8440084F8450084F864
:100E90003D00002010BD000008B51E4A01681E4834
:100EA00091420ED1816941F4006181618069002223
:100EB00000F40060009002211920FFF7ADFC19201A
:100EC00013E0B1F1804F14D0144A914220D1C1698E
:100ED00041F00201C161C069002200F002000090EF
:100EE00002211D20FFF798FC1D20BDE80840FFF7F8
:100EF00085BCC16941F00101C161C069002200F0F7
:100F00000100009002211C20FFF786FC1C20ECE76A
:100F100008BD0000002C0140001002400004004009
:100F200070B5044690F83C000025012817D0012632
:100F300084F83C60022084F83D002068826822F03A
:100F4000770222F47F4282600868502838D00DDC96
:100F500020284FD005DC90B3102811D14AE00220A0
:100F600070BD302846D040280AD13BE060282FD001
:100F700070280DD0B0F5805F03D0B0F5005F12D0BF
:100F8000012584F83D60002084F83C00284670BDAF
:100F9000CB68D1E90121206800F092FF20688168C8
:100FA00041F0770109E0CB68D1E90121206800F028
:100FB00087FF2068816841F480418160E1E719E0A2
:100FC000CA684968206801F02FF85021206806E0BF
:100FD000CA684968206801F038F86021206800F08C
:100FE00079FFCEE7CA684968206801F01DF8402102
:100FF0002068F4E7226801461046F0E770472DE9C3
:10100000F04104460068C66805694FF00007A9076B
:1010100013D5B10711D5F91E016101202077206891
:1010200080698007204602D0FFF7E8FF04E000F067
:10103000EAF8204600F016F92777680716D57007FA
:1010400014D521686FF00400086102202077206821
:10105000806910F4407F204602D0FFF7CFFF04E004
:1010600000F0D1F8204600F0FDF82777280715D5C5
:10107000300713D521686FF008000861042020773D
:101080002068C0698007204602D0FFF7B7FF04E060
:1010900000F0B9F8204600F0E5F82777E80616D505
:1010A000F00614D521686FF0100008610820207741
:1010B0002068C06910F4407F204602D0FFF79EFFF1
:1010C00004E000F0A0F8204600F0CCF82777E8070D
:1010D00008D0F00706D021686FF0010008612046B3
:1010E00000F0C2F8280608D5300606D521686FF052
:1010F000800008612046FFF741FE680608D57006AB
:1011000006D521686FF040000861204600F0D0F855
:10111000A8060AD5B00608D521686FF0200008613E
:101120002046BDE8F041FFF72ABEBDE8F08100008F
:1011300010B586B000210091019102910391194CE4
:101140000368194A02211948A34209D1936943F05F
:1011500004039361926902F004020492821518E07C
:10116000B3F1804F0CD0124CA34218D1936943F0D5
:1011700004039361926902F004020492402208E0A1
:10118000936943F004039361926902F004020492AC
:101190000122CDE9002103916946FFF7DBF906B092
:1011A00010BD0000002C014000100240000801406A
:1011B0000004004070B5044690F83C00002501286A
:1011C0000FD0012084F83C006AB1042A0FD0082A0D
:1011D00011D00C2A13D00125002084F83C002846A9
:1011E00070BD022070BD206800F07CFEF4E720682E
:1011F00000F0A0FEF0E7206800F0C8FEECE72068F1
:1012000000F0F0FEE8E7704710B5040003D094F852
:101210003D0010B107E0012010BD002084F83C0023
:10122000204600F01EF8022084F83D00211D2068B1
:1012300000F00AFE012084F8460084F83E0084F89D
:101240003F0084F8400084F8410084F8420084F8AC
:10125000430084F8440084F8450084F83D000020F1
:1012600010BD7047704700000E49884219D10E48E2
:1012700001784278914202D201F1010102E002D9E3
:10128000A1F1010101700849007801F1040151F850
:10129000200006490A68D062C86009684FEA500019
:1012A000886370474401002010000020FC000020EB
:1012B0007047704770470000F8B501680446086839
:1012C000CA684B6910F00F0F4FF0000559D003F0BA
:1012D000010602F49077374365D0C10705D0D105E8
:1012E00003D5616C41F001016164410705D5D9075F
:1012F00003D0616C41F002016164810705D5D90713
:1013000003D0616C41F004016164010707D502F06C
:101310002001314303D0616C41F008016164616CCC
:1013200000293AD0800604D5900602D5204600F068
:10133000CDFE20684069616CC0F38010090700D4BD
:1013400060B3204600F09BFE20684069400621D52E
:101350002068143050E8001F21F0400140E80012DE
:10136000002AF5D1E06BA8B16D494163E06BFEF74F
:10137000CDFF002811D0E06B416B01B0BDE8F0401B
:10138000084783060FD593060DD52046BDE8F840E3
:1013900000F09CBE2046FFF78DFFF8BD2046FFF70A
:1013A00089FF6564F8BD266B2023012E7CD1C6061B
:1013B0007AD5D60678D508684868009048694FF015
:1013C0000206400640D5E16B086840680004000C46
:1013D000E8D0A28D8242E5D9E085886920282DD009
:1013E00020680C3050E8001F21F4807140E80012A2
:1013F000002AF5D12068143050E8001F21F00101C7
:1014000040E80012002AF5D12068143050E8001F8F
:1014100021F0400140E80012002AF5D184F8423062
:10142000256320680C3050E8001F21F0100140E8CF
:101430000012002AF5D1E06BFEF745FF6663A08D30
:10144000E18D401A81B22AE0A08DE18D401A81B26F
:10145000E08D0028A6D00029A4D022680C3252E8E2
:10146000000F20F4907042E80007002FF5D12068AB
:10147000143050E8002F22F0010240E80027002F2E
:10148000F5D184F84230256320680C3050E8002FF5
:1014900022F0100240E80023002BF5D166632046BD
:1014A000FFF707FFF8BDFFE705062BD5150629D581
:1014B00094F841002128F5D1A068B0F5805F01D1F2
:1014C0002069B0B1206A411C21622168007848601F
:1014D000E08C401E0004000CE084E3D12068C16869
:1014E00021F08001C1602068C16841F04001C16005
:1014F000D8E7206A0088C0F308004860206A801C92
:101500002062E5E74006CDD55006CBD5CA68204617
:1015100022F04002CA6084F8413000F0FCF8C1E7D4
:101520006F20000870B5040004D094F84100002535
:1015300010B106E0012070BD84F84050204600F054
:1015400023F8242084F841002068C16821F4005168
:10155000C160204600F01CFE2068016921F4904122
:1015600001612068416921F02A0141612068C16858
:1015700041F40051C1606564202084F8410084F882
:1015800042006563002070BD2DE9F04186B0002562
:1015900000950195029503950446574F03685748F7
:1015A0000221032280264FF01008BB424DD1C369AF
:1015B00043F40033C361C36903F4003304938369C4
:1015C00043F00403836180694D4F00F004000490F0
:1015D0000420CDE90001039269463846FEF7BAFFC0
:1015E0000820CDE90005694638460295FEF7B2FFAE
:1015F000454F4448C7E902563D617D61BD61FD61CB
:10160000C7E900083846FEF777FF08B1FEF759FE34
:10161000A7637C623C4F3B4844371438C7E9000558
:10162000C7E902563D617D61BD613846FD61FEF747
:1016300063FF08B1FEF745FEE7630022114626204E
:101640007C62FFF7E9F8262051E0304FBB4250D1D1
:10165000C36943F48023C361C36903F48023049303
:10166000836943F0080383618069039200F00800F6
:1016700004903815CDE90001254F69463846FEF73C
:1016800069FFF814CDE90005694638460295FEF772
:1016900061FF1D4F1B4888375038C7E90005C7E96F
:1016A00002563D617D61BD613846FD61FEF724FF54
:1016B00008B1FEF706FEE7637C62134F1148CC3792
:1016C0006438C7E902563D617D61BD61FD61C7E9CE
:1016D00000083846FEF710FF08B1FEF7F2FDA763D9
:1016E0000022012127207C62FFF796F82720FFF7D0
:1016F00085F806B0BDE8F0810044004000100240CB
:1017000000080140800002401C0200200048004008
:10171000000C014070477047FEE70000154808B50F
:10172000416941F0010141614069002200F001007E
:10173000009011460C20FFF76FF80C20FFF75EF8C1
:10174000002211460D20FFF767F80D20FFF756F82D
:10175000002211461020FFF75FF81020FFF74EF827
:10176000002211461120FFF757F8BDE8084011206C
:10177000FFF744B8001002402DE9F04385B0002483
:1017800043480094019402940394816941F010014C
:101790008161816901F010010491816941F02001AA
:1017A0008161816901F020010491816941F00401A6
:1017B0008161816901F004010491816941F00801AE
:1017C00081618069334F00F008004FF44045049078
:1017D000002229463846FEF7ADFFDFF8BC80002224
:1017E00041F6A2614046FEF7A5FFDFF8B090002267
:1017F0004CF2F1014846FEF79DFF009502260125B7
:101800000396CDE9015469463846FEF7A3FE40F23F
:10181000A220CDE90005CDE9024669464046FEF723
:1018200099FE4CF20100CDE90005CDE9024669467A
:101830004846FEF78FFE68038DE83100694648464A
:10184000FEF788FE4FF4E0500090CDE901540324E8
:10185000694640460394FEF77DFEF0208DE8610066
:10186000694648460396FEF775FE20020090122056
:101870000190694603944846FEF76CFE08484168AB
:1018800041F0E06141F00201416005B0BDE8F08344
:10189000001002400010014000080140000C01400F
:1018A0000000014010B596B000240F9410941194DC
:1018B000129413941C2108A81494FEF785FC20218F
:1018C0006846FEF781FC2848264901604721C0E9A7
:1018D000011440F2E731C0E9031444618461FFF769
:1018E000ADFA08B1FEF7EDFC4FF480500F900FA950
:1018F0001D48FFF715FB08B1FEF7E3FC1A48FFF798
:1019000083FC08B1FEF7DDFC139413A91648149468
:10191000FFF760FA08B1FEF7D4FC089409940A9422
:101920000B940C940D94002208A90F480E94FFF715
:1019300041FC08B1FEF7C5FC00944FF40050CDE91E
:101940000440029401940394694607480794FFF702
:1019500017FA08B1FEF7B5FC0348FFF7E9FB16B02C
:1019600010BD0000002C0140B400002010B58EB066
:1019700000240794089409940A940B941C21684647
:101980000C94FEF721FC1D484FF080410160472177
:10199000C0E9011440F2E731C0E903148461FFF7A4
:1019A0004DFA08B1FEF78DFC4FF48050079007A95F
:1019B0001248FFF7B5FA08B1FEF783FC0F48FFF7AE
:1019C00023FC08B1FEF77DFC0B940BA90B480C948B
:1019D000FFF700FA08B1FEF774FC0094019402943A
:1019E0000022694605480494FFF7E4FB08B1FEF7BE
:1019F00068FC0248FFF79CFB0EB010BDFC00002005
:101A000010B58EB000240794089409940A940B949E
:101A10001C2168460C94FEF7D7FB1E481C49016048
:101A20004721C0E9011440F2E731C0E903148461A1
:101A3000FFF704FA08B1FEF744FC4FF4805007901A
:101A400007A91448FFF76CFA08B1FEF73AFC1148F1
:101A5000FFF7DAFB08B1FEF734FC0B940BA90D4835
:101A60000C94FFF7B7F908B1FEF72BFC0094019432
:101A700002940022694607480494FFF79BFB08B1D3
:101A8000FEF71FFC0348FFF753FB0EB010BD00002C
:101A900000040040440100200C4810B50A490160D0
:101AA0004FF461414160002181600C22C160C0E9B6
:101AB00004128161C161FFF735FD002803D0BDE844
:101AC0001040FEF7FEBB10BD004400408C0100201A
:101AD0000C4810B50A4901604FF4E1314160002122
:101AE00081600C22C160C0E904128161C161FFF70D
:101AF00019FD002803D0BDE81040FEF7E2BB10BD81
:101B000000480040D4010020FEE7FEE770B5002445
:101B10000021204600F0D6F80025002000F03CF916
:101B20006D1CEDB2802DF8D3641CE4B2082CEFD309
:101B300070BD000010B5064C012211022046FEF7D0
:101B4000F9FD20460122BDE810405102FEF7F2BD2A
:101B5000000C01402DE9F047144E002407464FF0D9
:101B600080084FF40079B51528FA04F23A40494646
:101B70003046FEF7DFFD012229463046FEF7DAFD4A
:101B8000002229463046FEF7D5FD641CE4B2082C3D
:101B9000EAD3012229463046FEF7CCFD29463046DD
:101BA000BDE8F0470022FEF7C5BD0000000C014073
:101BB00070B501220B4D540221462846FEF7BAFDAE
:101BC0000122160231462846FEF7B4FD00222146C6
:101BD0002846FEF7AFFD31462846BDE8704000229A
:101BE000FEF7A8BD000C014070B50A4D4FF400741B
:101BF000002221462846FEF79DFD012211022846BB
:101C0000FEF798FD21462846BDE870400122FEF708
:101C100091BD0000000C014010B500204FF47A7215
:101C20000021491C9142FCD3401C9042F8D3FFF79D
:101C300081FFAE2000F09FF8D52000F09CF88020B6
:101C400000F099F8A82000F096F83F2000F093F8F3
:101C5000D32000F090F8002000F08DF8402000F034
:101C60008AF8A12000F087F8C82000F084F8DA2074
:101C700000F081F8122000F07EF8812000F07BF85F
:101C8000CF2000F078F8D92000F075F8F12000F0AE
:101C900072F8DB2000F06FF8302000F06CF8A42020
:101CA00000F069F8A62000F066F88D2000F063F8D7
:101CB000142000F060F8AF2000F05DF8BDE810409F
:101CC000FFF724BF10B50C4640F0B00000F053F809
:101CD000102040EA141000F04EF804F00F00BDE8A8
:101CE000104000F048B800002DE9F0410746CE0052
:101CF0004000083E801E15464FF0FF38F1B2C0B2DA
:101D0000FFF7E0FF1148002400EB05152819A0F5A6
:101D1000805090F8000E00F03FF8641CE4B2082CEC
:101D2000F4D308EB4700F1B2C0B2FFF7CBFF0024B9
:101D30002819A0F5805090F8080E00F02DF8641CCA
:101D4000E4B2082CF4D3BDE8F0810000EE220008D4
:101D50002DE9F04115460E460746002406E03019ED
:101D6000C1B23846FFF7C0FF641CE4B22A5D002A06
:101D7000F5D1BDE8F08110B50446FFF719FF7820D2
:101D8000FFF7E8FE0020FFF7E5FE2046FFF7E2FE42
:101D9000BDE81040FFF728BF10B50446FFF708FF65
:101DA0007820FFF7D7FE4020FFF7D4FE2046FFF74C
:101DB000D1FEBDE81040FFF717BF70477047FEF730
:101DC000C5BC30B58FB028216846FEF7FDF9142157
:101DD0000AA8FEF7F9F901210804CDE90010002452
:101DE000029402250491CDE907504FF4E0100990C8
:101DF0006846FEF71FFE08B172B6FEE70F20CDE978
:101E00000A054FF48060CDE90C4002210AA80E9427
:101E1000FEF734FD002801D072B6FEE70FB030BDEA
:101E2000704700000148FFF7EAB80000B400002046
:101E30000148FFF7E4B80000FC0000200148FFF76C
:101E4000DEB8000044010020F0B50268194B1A4CBE
:101E50001A4D4FF08047984205D0B84203D0A042B7
:101E600001D0A84203D122F070064A68324398425A
:101E700005D0B84203D0A04201D0A84203D122F439
:101E80004074CA6822434C6922F0800222430260F7
:101E90008A68C2620A688262984201D10969016354
:101EA000012141610169C90703D0016921F00101E4
:101EB0000161F0BD002C014000040040000800401A
:101EC00010B5846842EA032224F47F440A43224383
:101ED000826010BD826822F070020A4342F007015E
:101EE0008160704730B5036A026A22F00102026223
:101EF0004268846924F073050C682C4323F00205C2
:101F00008B682B430A4DA8420BD123F00805CB6800
:101F100022F440722B434D6923F0040315438A6970
:101F20002A434260846149684163036230BD000016
:101F3000002C014030B5026A036A23F010030362EB
:101F4000436884690D6824F4E64444EA05248D68F6
:101F500022F0200242EA05120B4DA8420ED1CD68B4
:101F600022F0800242EA05124D6923F4406343EAFD
:101F700085038D6922F0400243EA85034360846152
:101F800049688163026230BD002C014030B5036AAC
:101F9000026A22F4807202624268C46923F4007308
:101FA00024F073050C682C438D6843EA05230C4D1F
:101FB000A8420ED1CD6823F4006343EA05234D699E
:101FC00022F4405242EA05128D6923F4806342EA0A
:101FD00005124260C4614968C163036230BD0000FC
:101FE000002C014030B5046A026A22F48052026279
:101FF0004268C3690D6823F4E64343EA05238D680C
:1020000024F4005444EA0534064DA84204D14D6935
:1020100022F4804242EA85124260C3614968016449
:10202000046230BD002C014010B5036A046A24F03C
:1020300001040462846924F0F00444EA021423F0E9
:102040000A020A438461026210BD10B5036A046A81
:1020500024F010040462846923F0A00324F4704483
:1020600044EA023243EA01118261016210BD10B5F7
:10207000406A0021C185C184FFF71CF910BD0168C9
:102080000C3151E8002F22F4907241E80023002B1C
:10209000F5D10168143151E8002F22F0010241E826
:1020A0000023002BF5D1016B012909D101680C3106
:1020B00051E8002F22F0100241E80023002BF5D157
:1020C000202180F8421000210163704708B590F884
:1020D0004210222901D0022008BD82684FF48053AB
:1020E0009A4201D1016921B1816A9A421BD04AB159
:1020F0000AE00268816A5268C2F308020A80816AB3
:10210000891C08E0026972B10268526802F07F021D
:102110000A70816A491C8162C18D491E0904090C3B
:10212000C18503D01BE002685268F1E70168CA6804
:1021300022F02002CA600168CA6822F48072CA6074
:1021400001684A6922F001024A61202180F84210A8
:1021500000214163026B012A03D0FFF7DBFA002064
:1021600008BD016301680C3151E8002F22F0100214
:1021700041E80023002BF5D101680A68D20602D598
:102180000A6849680091818DFFF793F8E7E700003E
:1021900070B5044600680169E26821F440511143BA
:1021A00001612169A0680843616908432168CA6820
:1021B00041F20C639A430243CA6020684169A269F4
:1021C00021F44071114341611E492068884202D1C7
:1021D000FEF7FAFB01E0FEF7E7FB00EBC00101EBC5
:1021E0000012606864218000B2FBF0F3B3FBF1F3EE
:1021F0006FF018067343B2FBF0F5B2FBF0F605EB97
:102200008305322303EB0515B5FBF1F5B6FBF1F6BB
:1022100005F0F00505EB0615B2FBF0F6B2FBF0F0A9
:10222000B0FBF1F06FF01802504306EB800003EBB7
:102230000010B0FBF1F0216800F00F002844886026
:1022400070BD0000003801400148FFF735B80000BC
:102250008C0100200148FFF72FB80000D4010020B6
:10226000FEE70907090E002804DB00F1E02080F8F2
:102270000014704700F00F0000F1E02080F8141DFA
:1022800070470000FEF76AFAFFF79BFDFFF774FA4C
:10229000FFF744FAFFF706FBFFF768FBFFF7FCFBCD
:1022A000FFF716FCFFF7ACFBFFF7B6FC012102A21B
:1022B0000846FFF74DFDFEE74D49443A20202044F3
:1022C00049443A00010202030405060708090A0B03
:1022D0000C0D0E0F101000000000000000000102A5
:1022E00003040607080900000000010203040000BF
:1022F00000000000000000000000000000000000DE
:1023000000F8000000000000003330000000001062
:102310000C06100C0600000000000000000040C089
:102320007840C0784000043F04043F04040000707B
:1023300088FC08300000001820FF211E0000F00873
:10234000F000E018000000211C031E211E0000F018
:102350000888700000001E21232419272110101660
:102360000E0000000000000000000000000000005F
:1023700000E01804020000000007182040000002DE
:102380000418E00000000040201807000000404052
:1023900080F0804040000202010F010202000000B4
:1023A00000F0000000000101011F01010100000018
:1023B00000000000000080B070000000000000007D
:1023C0000000000000000001010101010101000006
:1023D000000000000000003030000000000000009D
:1023E000000080601804006018060100000000E092
:1023F00010080810E000000F102020100F0000103F
:1024000010F8000000000020203F20200000007095
:10241000080808887000003028242221300000308D
:102420000888884830000018202020110E00000085
:10243000C02010F8000000070424243F240000F806
:102440000888880808000019212020110E0000E0EB
:10245000108888180000000F112020110E0000388D
:102460000808C83808000000003F000000000070A5
:10247000880808887000001C222121221C0000E02E
:1024800010080810E0000000312222110F000000A7
:1024900000C0C0000000000000303000000000005C
:1024A00000800000000000008060000000000000CC
:1024B0008040201008000001020408102000404065
:1024C00040404040400004040404040404000008A8
:1024D000102040800000002010080402010000705D
:1024E00048080808F0000000003036010000C03045
:1024F000C828E810E0000718272423140B00000068
:10250000C038E0000000203C23020227382008F8F1
:10251000888888700000203F202020110E00C030E5
:10252000080808083800071820202010080008F8BC
:1025300008080810E000203F202020100F0008F8B5
:102540008888E8081000203F20202320180008F881
:102550008888E8081000203F200003000000C030F9
:1025600008080838000007182020221E020008F87A
:1025700008000008F808203F210101213F20000841
:1025800008F8080800000020203F2020000000007C
:102590000808F8080800C08080807F00000008F864
:1025A00088C028180800203F20012638200008F89D
:1025B000080000000000203F20202020300008F804
:1025C000F800F8F80800203F003F003F200008F81E
:1025D00030C00008F808203F200007183F00E01036
:1025E00008080810E0000F10202020100F0008F845
:1025F00008080808F000203F210101010000E01058
:1026000008080810E0000F18242438504F0008F87C
:10261000888888887000203F2000030C30200070DC
:102620008808080838000038202121221C001808DA
:1026300008F8080818000000203F2000000008F8F3
:1026400008000008F808001F202020201F0008783C
:10265000880000C83808000007380E010000F8089C
:1026600000F80008F800033C0700073C03000818C6
:1026700068808068180820302C03032C302008382C
:10268000C800C83808000000203F200000001008E3
:102690000808C8380800203826212020180000002B
:1026A00000FE020202000000007F40404000000CDB
:1026B00030C000000000000000010638C000000229
:1026C0000202FE000000004040407F0000000000C9
:1026D00004020202040000000000000000000000EC
:1026E00000000000000080808080808080800002E8
:1026F00002040000000000000000000000000000D4
:102700008080808000000019242222223F2008F8C7
:10271000008080000000003F112020110E0000000A
:10272000008080800000000E112020201100000099
:1027300000808088F800000E112020103F2000004B
:10274000808080800000001F22222222130000804F
:1027500080F0888888180020203F2020000000009A
:10276000808080808000006B94949493600008F8CF
:10277000008080800000203F210000203F2000805A
:102780009898000000000020203F2020000000005A
:1027900000809898000000C08080807F000008F8CA
:1027A000000080808000203F24022D30200000089F
:1027B00008F8000000000020203F2020000080805A
:1027C000808080808000203F20003F20003F80806C
:1027D000008080800000203F210000203F2000007A
:1027E000808080800000001F202020201F0080802B
:1027F00000808000000080FFA12020110E0000005A
:10280000008080808000000E112020A0FF8080804A
:1028100080008080800020203F21200001000000F7
:1028200080808080800000332424242419000080CC
:1028300080E0808000000000001F202000008080D9
:10284000000000808000001F202020103F2080809A
:1028500080000080808000010E300806010080802A
:102860000080008080800F300C030C300F0000804F
:102870008000808080000020312E0E31200080807A
:1028800080000080808080818E70180601000080AA
:102890008080808080000021302C222130000000C8
:1028A0000000807C020200000000003F4040000069
:1028B0000000FF00000000000000FF000000000218
:1028C000027C800000000040403F00000000000645
:1028D00001010202040400000000000000000000EA
:1028E0000029000800000020B400000028010008B2
:1028F000B4290008B4000020DC08000044010008EE
:1029000001000000100000000000000000127A002A
:1029100000000000A7610000D33000008C20000000
:10292000691800008713000045100000F20D000038
:10293000340C0000D80A0000C3090000DF080000C2
:102940002208000082070000F8060000810600004F
:1029500019060000BD0500006B05000022050000FF
:10296000E1040000A50400006F0400003D04000025
:1029700010040000E7030000C00300009C030000F7
:102980007B0300005D0300004003000025030000FE
:102990000C030000F4020000DE020000C902000087
:1029A000B5020000A20200009002000080020000B8
:0429B00070020000B1
:04000005080000ED02
:00000001FF
