:020000040800F2
:10000000F809002089010008611F00088B1A000808
:10001000F51E00088F020008A52600080000000059
:100020000000000000000000000000008721000820
:10003000C102000800000000852100089D21000881
:10004000A3010008A3010008A3010008A301000800
:10005000A3010008A3010008A3010008A3010008F0
:10006000A3010008A3010008A3010008A3010008E0
:10007000910200089D020008A3010008A3010008E6
:10008000A9020008B5020008A3010008A3010008A6
:10009000A3010008A3010008A3010008A3010008B0
:1000A000A301000809220008A3010008A301000819
:1000B00015220008212200082D220008A3010008B3
:1000C000A3010008A3010008A3010008A301000880
:1000D000A3010008A30100088D2600089926000846
:1000E000A3010008A3010008A301000800F002F822
:1000F00000F03AF80AA090E8000C82448344AAF188
:100100000107DA4501D100F02FF8AFF2090EBAE885
:100110000F0013F0010F18BFFB1A43F0010318473B
:100120004026000060260000103A24BF78C878C13D
:10013000FAD8520724BF30C830C144BF04680C60ED
:10014000704700000023002400250026103A28BF35
:1001500078C1FBD8520728BF30C148BF0B60704739
:100160001FB51FBD10B510BD00F058F81146FFF7C0
:10017000F7FF02F0A9FA00F076F803B4FFF7F2FFF8
:1001800003BC00F07DF8000009488047094800479B
:10019000FEE7FEE7FEE7FEE7FEE7FEE7FEE7FEE737
:1001A000FEE7FEE704480549054A064B7047000094
:1001B00005220008ED000008F8030020F8090020DF
:1001C000F8050020F80500204FF0000200B51346A6
:1001D00094469646203922BFA0E80C50A0E80C5067
:1001E000B1F12001BFF4F7AF090728BFA0E80C5018
:1001F00048BF0CC05DF804EB890028BF40F8042B11
:1002000008BF704748BF20F8022B11F0804F18BF7D
:1002100000F8012B7047704770477047754600F033
:100220002BF8AE4605006946534620F00700854688
:1002300018B020B5FFF7B6FFBDE820404FF000062C
:100240004FF000074FF000084FF0000B21F00701BE
:10025000AC46ACE8C009ACE8C009ACE8C009ACE801
:10026000C0098D46704710B50446AFF300802046A4
:10027000BDE81040FFF781BF00487047940300209D
:1002800001491820ABBEFEE7260002007047FEE7DA
:10029000014800F087B8000044030020014800F046
:1002A00081B8000000030020014800F07BB8000086
:1002B000BC020020014800F075B800007802002060
:1002C000704772B6FEE710B590F82110002202299F
:1002D00005D00421816380F82020012010BD016831
:1002E0000B6823F00E030B6001680B6823F0010319
:1002F0000B6090F84030C46B012101FA03F3636096
:1003000080F8211080F82020104610BD10B590F81C
:1003100021100024022903D00421816301243DE03F
:1003200001680A6822F00E020A6001680A6822F079
:1003300001020A601A4A0168914201D1012121E0BB
:10034000174A1432914201D110211BE0144A28327D
:10035000914201D1891515E0114A3C32914201D1F7
:1003600089140FE00E4A5032914202D14FF480318D
:1003700008E00B4A6432914202D14FF4801101E04F
:100380004FF08071064A083A5160012180F821102F
:10039000002180F82010416B01B18847204610BD34
:1003A000080002402DE9F05FC16B0C6801680B6822
:1003B000D0F840C0042202FA0CF2494DDFF824A123
:1003C000494E4A4FDFF828B1DFF828E122422CD00D
:1003D0005A072AD50A68920603D40A6822F0040252
:1003E0000A600168A94201D1042219E0514501D1F6
:1003F000402215E0B14202D14FF4806210E0B942D0
:1004000002D14FF480420BE0594502D14FF48022D3
:1004100006E0714502D14FF4800201E04FF08062A6
:100420002F4908394A60C16A3BE04FF0020808FAD8
:100430000CF818EA040F4FF000094FF0010235D014
:100440005FEA837832D50B689B0605D40B6823F0EE
:100450000A030B6080F821200168A94201D1022221
:1004600019E0514501D1202215E0B14202D14FF4EB
:10047000007210E0B94202D14FF400520BE059452E
:1004800002D14FF4003206E0714502D14FF4001260
:1004900001E04FF00072124908394A6080F820905C
:1004A000816A00291AD0BDE8F05F0847082505FADF
:1004B0000CF5254212D01B0710D50B6823F00E0354
:1004C0000B6090F84010C36B02FA01F1596082632F
:1004D00080F8212080F82090016BE2E7BDE8F09FD2
:1004E000080002401C00024030000240440002406C
:1004F000580002406C00024030B528B308C81349C8
:1005000014221944B1FBF2F18900C16310498163DF
:10051000022141771A6843F6F0718A43D0E900144A
:100520002143D0E902452C43214304692143446916
:100530002143846921431143196000214163012251
:1005400042770177084630BD012030BDF8FFFDBF7E
:10055000000002402DE9F84FDFF8B8910024A9F11E
:10056000040B23460F2709F1040AABF1040EC9E07E
:100570000125A5402A40AA427DD1674ED1F804C08A
:10058000ACEB0608B44532D014DCBCF1030F3AD012
:1005900009DCBCF1000F2AD0BCF1010F1CD0BCF16A
:1005A000020F31D11DE0BCF1110F17D0BCF1120FB9
:1005B0002AD119E0B8F5881F19D006DCB8F5803FBC
:1005C00015D0B8F5801F1FD111E0B8F5001F0ED06F
:1005D000B8F5041F18D10AE0CB6815E0CB681B1DE5
:1005E00012E0CB6808330FE0CB680C330CE08B686B
:1005F0002BB1012B4FF0080303D0456104E0042325
:1006000002E0056100E00023FF2A01D8064601E070
:1006100000F104064FEA840501D9A5F12005D6F8BA
:10062000008007FA05FC28EA0C0803FA05F548EAF9
:100630000508C6F800804D68ED0062D5374DAE69FB
:1006400046F00106AE61AD6924F0030605F0010530
:100650000095334D06EB050CDCF80850A607360F65
:1006600007FA06F825EA0805DFF8B880404503D107
:100670004FF0000817E044E0DFF8AC80404502D1BD
:100680004FF001080FE0DFF8A480404502D14FF0A1
:10069000020808E0DFF89880404502D14FF00308D7
:1006A00001E04FF0040808FA06F848EA0508CCF81B
:1006B00008804D68D9F80060ED024D4601D516431B
:1006C00000E096432E604D68DAF80060AD025546B2
:1006D00001D5164300E096432E604D68DBF80060BC
:1006E000AD035D4601D5164300E096432E604D688C
:1006F000DEF80060ED03754601D5164300E0964331
:100700002E60641C0D682A46E5407FF431AFBDE8D9
:10071000F88F000008040140000011100010024092
:100720000000014000080140000C014000100140A1
:10073000001401400AB1016170470904FBE70000A1
:1007400001488068704700000000002070B5040078
:1007500013D021684CF6CC400860216845F2555012
:100760000860D4E9000141602168A0688860FFF753
:10077000E7FF054641F23C360DE0012070BD00BFA9
:10078000FFF7DEFF401BB04205D92068C068800734
:1007900001D0032070BD2068C0688007F0D12168B7
:1007A0004AF6AA200860002070BD00000248816857
:1007B000027811448160704700000020074810B59E
:1007C000016841F010010160032000F075F80F206E
:1007D00000F006F800F024F8002010BD00200240D0
:1007E00070B50D4D04464FF47A712878B1FBF0F0E6
:1007F0000A490968B1FBF0F000F0DCFA48B9102CA6
:1008000007D200222146501E00F036F800206C600E
:1008100070BD012070BD0000000000200C00002011
:100820000C4808B5816941F001018161816901F0DD
:1008300001010091C16941F08051C161C06900F0BE
:10084000805000900448416821F0E06141F000715F
:10085000416008BD0010024000000140002809DB93
:1008600000F01F02012191404009800000F1E020CA
:10087000C0F8001170470000F0B40E4B1B680C4626
:10088000C3F30223C3F10705042D00D90425191D64
:10089000072901D2002300E0DB1E012606FA05F13C
:1008A000491E214099409E40761E16403143F0BCBF
:1008B00001F0F9BE0CED00E0064900F007020868FF
:1008C0004FF6FF03184040EA0220034A1043086035
:1008D000704700000CED00E00000FA052DE9F0473C
:1008E0000F46050061D0434E306800F00700B84263
:1008F00009D2306820F0070038433060306800F0DB
:100900000700B84251D128683B4C810712D54007F7
:1009100003D5606840F4E06060602878000703D584
:10092000606840F4605060606068A96820F0F00082
:10093000084360602878C00728D06868012810D074
:100940002168022810D0890700292EDA616821F079
:10095000030101436160FFF7F3FE804641F28839ED
:100960000DE021688903EFE78901EDE7FFF7E8FE75
:10097000A0EB0801494502D90320BDE8F087606873
:10098000696800F00C00B0EB810FEFD1306800F027
:100990000700B8420BD9306820F0070038433060B8
:1009A000306800F00700B84201D00120E5E7287860
:1009B000400705D56068E96820F4E060084360609E
:1009C0002878000706D56068296920F4605040EA5D
:1009D000C100606000F038F86168084AC1F3031193
:1009E000515CC8400649086006480068FFF7F8FEF9
:1009F0000020C2E700200240001002404627000805
:100A00000C000020040000200448054900684968E3
:100A1000044AC1F30221515CC84070470C00002019
:100A2000001002405627000804480549006849683C
:100A3000044AC1F3C221515CC84070470C00002039
:100A400000100240562700080E4A51680E4801F077
:100A50000C03042B11D0082B0FD10C48C1F3834396
:100A6000C903C05C0AD55168084AC1F34041921ECF
:100A7000515C054A5043B0FBF1F0704704494843CC
:100A8000704700000010024000127A00362700086C
:100A900000093D002DE9F84F040070D02078C04DCA
:100AA000C00749D06868C0F38100012807D0686892
:100AB000C0F38100022809D16868C00306D5286800
:100AC000800339D560680028E7D035E06068B0F56C
:100AD000803F0BD010B1B0F5A02F11D0286820F4C2
:100AE00080302860286820F4802002E0286840F4E4
:100AF00080302860606890B1FFF722FE06460AE069
:100B0000286840F480202860F0E700BFFFF718FE57
:100B1000801B642873D828688003F7D50CE0FFF7A2
:100B20000FFE064605E000BFFFF70AFE801B6428A3
:100B3000F0D828688003F7D420789A4E80074FF0C9
:100B400001094FF0000839D5686810F00C0F07D084
:100B50006868C0F38100022809D16868C00306D420
:100B60002868800714D52069012808D110E0206981
:100B7000B0B1C6F80090FFF7E3FD074605E00AE1D3
:100B8000FFF7DEFDC01B0228C4D828688007F7D510
:100B90002868616920F0F80040EAC10028600DE093
:100BA000C6F80080FFF7CCFD074604E0FFF7C8FD5C
:100BB000C01B022823D828688007F7D420780007B4
:100BC0002CD57948A169D9B1C0F80090FFF7B8FDDC
:100BD000074604E0FFF7B4FDC01B02280FD8686A7F
:100BE0008007F7D571484FF4FA510068B0FBF1F077
:100BF000009000BF0098411E0091FAD20EE080E004
:100C0000C0F80080FFF79CFD074604E0FFF798FD61
:100C1000C01B022875D8686A8007F7D4207840077F
:100C200060D5E8690027C00008D4E86940F080502A
:100C3000E861E869012700F0805000905C48016895
:100C4000C90513D40168834641F480710160FFF740
:100C500077FD824606E000BFFFF772FDA0EB0A00B9
:100C600064284ED8DBF80000C005F5D5E0680128FF
:100C70000AD008B1052813D0286A20F001002862A4
:100C8000286A20F0040002E0286A40F0010028628F
:100C9000E06841F2883B98B1FFF752FD82460BE0D5
:100CA000286A40F004002862EEE700BFFFF748FD25
:100CB000A0EB0A0159455AD8286A8007F6D50CE0FE
:100CC000FFF73EFD824605E0FFF73AFDA0EB0A0183
:100CD00059454CD8286A8007F6D41FB1E86920F03E
:100CE0008050E861E06988B36968C1F38101022935
:100CF00044D00228C6F8608004D0FFF721FD0446E6
:100D000038E034E0FFF71CFD074604E0FFF718FD6C
:100D1000C01B02282BD828688001F7D4206AB0F5C0
:100D2000803F05D16868A16820F4003008436860FE
:100D3000D4E908010843696821F474110843686024
:100D4000C6F86090FFF7FCFC044606E025E000BF13
:100D5000FFF7F6FC001B022809D828688001F7D5A8
:100D60001BE000BFFFF7ECFC001B022802D90320A8
:100D7000BDE8F88F28688001F4D40EE00128F7D090
:100D80006868226A00F48031914204D1616A00F4FB
:100D90007010884201D00120EAE70020E8E7000057
:100DA0000010024000004242800442420C00002039
:100DB0000070004010B5401EB0F1807F01D30120CB
:100DC00010BD4FF0E02460610F21601701F06BFC53
:100DD0000020A06107202061002010BD70477047EF
:100DE00010B590F83C20012A22D0012280F83C2046
:100DF000CA688C6822F4407222434C6822F48062F4
:100E000022430C6822F4006222430C6922F48052CF
:100E100022434C6922F400522243C969002322F480
:100E200080420A4301684A6480F83C30002010BDCB
:100E3000022010BD70B590F83C20012A26D0012474
:100E400080F83C40022280F83D2003685A689D6883
:100E500022F070060A6832435A600D4B02689A42CB
:100E600008D0B2F1804F05D00A4B9A4202D00A4B0B
:100E70009A4204D1496825F080031943916080F8B3
:100E80003D40002180F83C10084670BD022070BD36
:100E9000002C0140000400400008004010B5040090
:100EA00003D094F83D0010B107E0012010BD0020F0
:100EB00084F83C00204600F01FF8022084F83D0032
:100EC000211D206801F0B8F9012084F8460084F85B
:100ED0003E0084F83F0084F8400084F8410084F824
:100EE000420084F8430084F8440084F8450084F804
:100EF0003D00002010BD000008B5274A01682748C2
:100F000091420ED1816941F40061816180690022C2
:100F100000F40060009002211920FFF7ADFC1920B9
:100F200034E0B1F1804F11D01D4A91421DD1C16909
:100F300041F00201C161C069002200F0020000908E
:100F400002211D20FFF798FC1D201FE0C16941F020
:100F50000101C161C069002200F00100009002217E
:100F60001C20FFF789FC1C2010E00E4A914211D191
:100F7000C16941F00401C161C069002200F00400B0
:100F8000009011461E20FFF777FC1E20BDE80840A8
:100F9000FFF764BC08BD0000002C014000100240B7
:100FA000000400400008004090F83D10012901D0E5
:100FB00001207047022180F83D100168CA6842F0A4
:100FC0000102CA6000680B49884208D0B0F1804F26
:100FD00005D00949884202D00849884204D1816875
:100FE00001F00701062903D0016841F00101016009
:100FF00000207047002C0140000400400008004021
:1010000070B5044690F83C000025012817D0012651
:1010100084F83C60022084F83D002068826822F059
:10102000770222F47F4282600868502838D00DDCB5
:1010300020284FD005DC90B3102811D14AE00220BF
:1010400070BD302846D040280AD13BE060282FD020
:1010500070280DD0B0F5805F03D0B0F5005F12D0DE
:10106000012584F83D60002084F83C00284670BDCE
:10107000CB68D1E90121206801F027F92068816857
:1010800041F0770109E0CB68D1E90121206801F046
:101090001CF92068816841F480418160E1E719E032
:1010A000CA684968206801F0C5F95021206806E047
:1010B000CA684968206801F0CEF96021206801F013
:1010C0000EF9CEE7CA684968206801F0B3F94021FB
:1010D0002068F4E7226801461046F0E770472DE9E2
:1010E000F04104460068C66805694FF00007A9078B
:1010F00013D5B10711D5F91E0161012020772068B1
:1011000080698007204602D0FFF7E8FF04E000F086
:10111000EAF8204600F0AAF92777680716D5700785
:1011200014D521686FF00400086102202077206840
:10113000806910F4407F204602D0FFF7CFFF04E023
:1011400000F0D1F8204600F091F92777280715D54F
:10115000300713D521686FF008000861042020775C
:101160002068C0698007204602D0FFF7B7FF04E07F
:1011700000F0B9F8204600F079F92777E80616D58F
:10118000F00614D521686FF0100008610820207760
:101190002068C06910F4407F204602D0FFF79EFF10
:1011A00004E000F0A0F8204600F060F92777E80797
:1011B00008D0F00706D021686FF0010008612046D2
:1011C00000F0A4F9280608D5300606D521686FF08E
:1011D000800008612046FFF701FE680608D570060A
:1011E00006D521686FF040000861204600F0E4F960
:1011F000A8060AD5B00608D521686FF0200008615E
:101200002046BDE8F041FFF7EABDBDE8F0810000EF
:1012100010B586B000210091019102910391194C03
:101220000368194A02211948A34209D1936943F07E
:1012300004039361926902F004020492821518E09B
:10124000B3F1804F0CD0124CA34218D1936943F0F4
:1012500004039361926902F004020492402208E0C0
:10126000936943F004039361926902F004020492CB
:101270000122CDE9002103916946FFF76BF906B021
:1012800010BD0000002C0140001002400008014089
:101290000004004070B5044690F83C000025012889
:1012A0000FD0012084F83C006AB1042A0FD0082A2C
:1012B00011D00C2A13D00125002084F83C002846C8
:1012C00070BD022070BD206801F012F8F4E72068BC
:1012D00001F036F8F0E7206801F05EF8ECE72068EE
:1012E00001F086F8E8E7704710B5040003D094F8E1
:1012F0003D0010B107E0012010BD002084F83C0043
:10130000204600F01EF8022084F83D00211D2068D0
:1013100000F092FF012084F8460084F83E0084F833
:101320003F0084F8400084F8410084F8420084F8CB
:10133000430084F8440084F8450084F83D00002010
:1013400010BD704770B5044690F83C0000260D466D
:1013500001280FD0012084F83C006AB1042A1DD076
:10136000082A2FD00C2A3FD00126002084F83C0008
:10137000304670BD022070BD206800F0B9FF2068C3
:10138000816941F0080181612068816921F00401CF
:101390008161206881692A69114311E0206800F0A9
:1013A000CFFF2068816941F4006181612068816913
:1013B00021F480618161206881692A6941EA022102
:1013C0008161D2E7206800F0E7FF2068C16941F041
:1013D0000801C1612068C16921F00401C161206870
:1013E000C1692A69114311E0206801F001F8206801
:1013F000C16941F40061C1612068C16921F4806163
:10140000C1612068C1692A6941EA0221C161ACE772
:1014100010B5040003D094F83D0010B107E001209E
:1014200010BD002084F83C00204600F01EF8022089
:1014300084F83D00211D206800F0FEFE012084F8A4
:10144000460084F83E0084F83F0084F8400084F8A9
:10145000410084F8420084F8430084F8440084F892
:10146000450084F83D00002010BD70477047000023
:1014700010B50446022249B104290ED0082913D020
:1014800094F84100012816D0012010BD94F83E00C8
:101490000128F9D184F83E200FE094F83F0001289C
:1014A000F2D184F83F2008E094F840000128EBD105
:1014B00084F8402001E084F841200122206800F0F7
:1014C000F7FE0F492068884203D1426C42F4004283
:1014D00042642068884208D0B0F1804F05D00949A5
:1014E000884202D00849884204D1816801F007018E
:1014F000062903D0016841F001010160002010BD00
:10150000002C01400004004000080040254910B5AF
:10151000884245D1244801784278914202D201F1B3
:10152000010102E002D9A1F1010101708178C278C4
:10153000914202D201F1010102E002D9A1F10101BF
:10154000817001794279914202D201F1010102E0F8
:1015500002D9A1F101010171134B0178827803F1E5
:101560000803007953F8211053F8222053F8200083
:101570000E4B1C68E162D9601B684FEA5101596348
:101580000B490B68DA62CA6009684FEA52024A6383
:1015900008490A68D062C86009684FEA5000486389
:1015A00010BD0000A001002010000020C800002095
:1015B000100100205801002070477047704700005C
:1015C000F8B5016804460868CA684B6910F00F0F47
:1015D0004FF0000559D003F0010602F4907737432D
:1015E00065D0C10705D0D10503D5616C41F001017B
:1015F0006164410705D5D90703D0616C41F0020150
:101600006164810705D5D90703D0616C41F00401FD
:101610006164010707D502F02001314303D0616CFA
:1016200041F008016164616C00293AD0800604D55C
:10163000900602D5204600F04FFF20684069616C9B
:10164000C0F38010090700D460B3204600F01DFFEE
:1016500020684069400621D52068143050E8001FFA
:1016600021F0400140E80012002AF5D1E06BA8B15A
:101670006D494163E06BFEF749FE002811D0E06B35
:10168000416B01B0BDE8F040084783060FD59306D3
:101690000DD52046BDE8F84000F01EBF2046FFF7FC
:1016A0008DFFF8BD2046FFF789FF6564F8BD266B06
:1016B0002023012E7CD1C6067AD5D60678D50868B7
:1016C0004868009048694FF00206400640D5E16B3B
:1016D000086840680004000CE8D0A28D8242E5D979
:1016E000E085886920282DD020680C3050E8001F44
:1016F00021F4807140E80012002AF5D120681430EE
:1017000050E8001F21F0010140E80012002AF5D145
:101710002068143050E8001F21F0400140E800121A
:10172000002AF5D184F84230256320680C3050E857
:10173000001F21F0100140E80012002AF5D1E06BF3
:10174000FEF7C1FD6663A08DE18D401A81B22AE0EB
:10175000A08DE18D401A81B2E08D0028A6D000292D
:10176000A4D022680C3252E8000F20F4907042E8B6
:101770000007002FF5D12068143050E8002F22F028
:10178000010240E80027002FF5D184F8423025639C
:1017900020680C3050E8002F22F0100240E80023AF
:1017A000002BF5D166632046FFF707FFF8BDFFE782
:1017B00005062BD5150629D594F841002128F5D129
:1017C000A068B0F5805F01D12069B0B1206A411CEA
:1017D0002162216800784860E08C401E0004000C03
:1017E000E084E3D12068C16821F08001C1602068F5
:1017F000C16841F04001C160D8E7206A0088C0F3A9
:1018000008004860206A801C2062E5E74006CDD5CC
:101810005006CBD5CA68204622F04002CA6084F840
:10182000413000F031F9C1E77B24000870B50400B5
:1018300004D094F84100002510B106E0012070BDED
:1018400084F84050204600F023F8242084F841001A
:101850002068C16821F40051C160204600F09EFE5E
:101860002068016921F4904101612068416921F0FB
:101870002A0141612068C16841F40051C16065647A
:10188000202084F8410084F842006563002070BD88
:101890002DE9F04186B0002500950195029503954C
:1018A0000446574F036857480221032280264FF011
:1018B0001008BB424DD1C36943F40033C361C3690F
:1018C00003F400330493836943F004038361806964
:1018D0004D4F00F0040004900420CDE90001039274
:1018E00069463846FEF736FE0820CDE90005694610
:1018F00038460295FEF72EFE454F4448C7E902568A
:101900003D617D61BD61FD61C7E900083846FEF7B4
:10191000F3FD08B1FEF7D5FCA7637C623C4F3B4862
:1019200044371438C7E90005C7E902563D617D61B7
:10193000BD613846FD61FEF7DFFD08B1FEF7C1FC71
:10194000E7630022114626207C62FEF795FF2620E1
:1019500051E0304FBB4250D1C36943F48023C3618F
:10196000C36903F480230493836943F0080383610C
:101970008069039200F0080004903815CDE9000159
:10198000254F69463846FEF7E5FDF814CDE9000518
:10199000694638460295FEF7DDFD1D4F1B48883726
:1019A0005038C7E90005C7E902563D617D61BD6158
:1019B0003846FD61FEF7A0FD08B1FEF782FCE76343
:1019C0007C62134F1148CC376438C7E902563D6139
:1019D0007D61BD61FD61C7E900083846FEF78CFDF9
:1019E00008B1FEF76EFCA7630022012127207C626C
:1019F000FEF742FF2720FEF731FF06B0BDE8F08179
:101A000000440040001002400008014080000240F5
:101A10007802002000480040000C014090F842305D
:101A2000202B01D00220704721B11AB1002303639B
:101A300000F010BE0120704700680F4988421AD19B
:101A40000E48014602788978012A06D1FE2908D07D
:101A50000B4B42789954521C4270FF2909D0FE2941
:101A600009D10021017005490122891C0548FFF7B1
:101A7000D5BF01210170704700480040B800002028
:101A800088030020300200207047FEE7154808B5A3
:101A9000416941F0010141614069002200F001000B
:101AA000009011460C20FEF7E7FE0C20FEF7D6FE54
:101AB000002211460D20FEF7DFFE0D20FEF7CEFEC0
:101AC000002211461020FEF7D7FE1020FEF7C6FEBA
:101AD000002211461120FEF7CFFEBDE8084011207C
:101AE000FEF7BCBE001002402DE9F04385B0002493
:101AF0003E480094019402940394816941F01001DE
:101B00008161816901F010010491816941F0200136
:101B10008161816901F020010491816941F0040132
:101B20008161816901F004010491816941F008013A
:101B3000816180692E4F00F008004FF44045049009
:101B4000002229463846FEF7F5FDDFF8A88000227E
:101B500040F2A2214046FEF7EDFDDFF89C90002206
:101B60004DF2F1314846FEF7E5FD01224FF4E05118
:101B70004046FEF7DFFD0095022601250396CDE9DC
:101B8000015469463846FEF7E5FC41F6A260CDE90E
:101B90000005CDE9024669464046FEF7DBFC4CF203
:101BA0000130CDE90005CDE9024669464846FEF719
:101BB000D1FC2803CDE900050320CDE902406946A8
:101BC0004846FEF7C7FC68038DE831006946484681
:101BD000FEF7C0FCF0208DE8610069464846039698
:101BE000FEF7B8FC05B0BDE8F0830000001002402D
:101BF0000010014000080140000C0140094810B5E8
:101C0000074901600221416040F6C4118160FEF77E
:101C10009DFD002803D0BDE81040FEF752BB10BD6B
:101C200000300040BC00002010B596B000240F9496
:101C300010941194129413941C2108A81494FEF784
:101C4000C3FA20216846FEF7BFFA284826490160FA
:101C50004721C0E901144FF41C71C0E90314446129
:101C60008461FFF71BF908B1FEF72BFB4FF480509E
:101C70000F900FA91D48FFF7C3F908B1FEF721FB2C
:101C80001A48FFF7C5FB08B1FEF71BFB139413A915
:101C900016481494FFF7CEF808B1FEF712FB602047
:101CA000CDE908040A940B940C940D94002208A921
:101CB0000E480E94FFF746FB08B1FEF702FB0094B6
:101CC0004FF40050CDE90440029401940394694616
:101CD00006480794FFF784F808B1FEF7F2FA0348C4
:101CE000FFF796FA16B010BD002C0140C800002086
:101CF00010B58EB000240794089409940A940B94AC
:101D00001C2168460C94FEF75FFA1D484FF0804195
:101D100001604721C0E9011440F2E731C0E9031432
:101D20008461FFF7BBF808B1FEF7CBFA4FF480509F
:101D3000079007A91248FFF763F908B1FEF7C1FA47
:101D40000F48FFF7D1FA08B1FEF7BBFA0B940BA9C5
:101D50000B480C94FFF76EF808B1FEF7B2FA009446
:101D6000019402940022694605480494FFF792FA10
:101D700008B1FEF7A6FA0248FFF74AFA0EB010BD06
:101D80001001002010B58EB0002407940894099427
:101D90000A940B941C2168460C94FEF715FA1E4811
:101DA0001C4901604721C0E9011440F2E731C0E954
:101DB00003148461FFF772F808B1FEF782FA4FF45A
:101DC0008050079007A91448FFF71AF908B1FEF7E9
:101DD00078FA1148FFF788FA08B1FEF772FA0B9407
:101DE0000BA90D480C94FFF725F808B1FEF769FA26
:101DF0000094019402940022694607480494FFF776
:101E000049FA08B1FEF75DFA0348FFF701FA0EB090
:101E100010BD0000000400405801002010B586B03D
:101E200000241748009401940294039404941349E5
:101E30000594016041F61F41C0E901146321C0E926
:101E400003148461FFF72AF808B1FEF73AFA4FF459
:101E50008050009069460A48FFF7D2F808B1FEF7B3
:101E600030FA049404A906480594FEF7E3FF00281D
:101E700001D0FEF726FA06B010BD000000080040B1
:101E8000A00100200C4810B50A4901604FF46141DF
:101E90004160002181600C22C160C0E904128161AF
:101EA000C161FFF7C3FC002803D0BDE81040FEF776
:101EB00008BA10BD00440040E80100200C4810B5ED
:101EC0000A4901604FF4E1314160002181600C2238
:101ED000C160C0E904128161C161FFF7A7FC00285D
:101EE00003D0BDE81040FEF7ECB910BD004800403B
:101EF00030020020FEE7000002464FF40071014866
:101F0000FEF718BC0008014010B501280ED00022D1
:101F1000074C4FF400412046FEF70CFC2046BDE87C
:101F2000104000224FF48041FEF704BC0122EFE78D
:101F3000000C0140272800D927200149487070472C
:101F40001000002010B500210348FFF791FABDE80A
:101F500010400248FFF728B8C8000020A001002068
:101F6000FEE770B500240021204600F0C7F80025E8
:101F7000002000F0F6F86D1CEDB2802DF8D3641C43
:101F8000E4B2082CEFD370BD70B586B000241348BE
:101F90000094019402940394816941F008018161E5
:101FA00080690F4E00F008004FF4407504902246FF
:101FB00029463046FEF7BEFB01200095CDE901041D
:101FC0000220039069463046FEF7C4FA012000F073
:101FD000A7F8012000F0ACF806B070BD0010024078
:101FE000000C014070B500240546802626FA04F056
:101FF000284000F09DF8012000F092F8002000F049
:102000008FF8641CE4B2082CF0D3012000F088F8AB
:10201000BDE87040002000F083B810B5012000F04A
:1020200087F8012000F07CF8002000F081F8BDE87E
:102030001040002000F074B810B5002000F078F8CF
:10204000012000F06DF8BDE81040012000F070B8EC
:1020500010B500204FF47A720021491C9142FCD344
:10206000401C9042F8D3FFF78FFFAE2000F068F8D5
:10207000D52000F065F8802000F062F8A82000F07C
:102080005FF83F2000F05CF8D32000F059F8002002
:1020900000F056F8402000F053F8A12000F050F86E
:1020A000C82000F04DF8DA2000F04AF8122000F0C5
:1020B00047F8812000F044F8CF2000F041F8D92003
:1020C00000F03EF8F12000F03BF8DB2000F038F89B
:1020D000302000F035F8A42000F032F8A62000F0FF
:1020E0002FF88D2000F02CF8142000F029F8AF20F4
:1020F00000F026F8BDE81040FFF733BF10B50C46DE
:1021000040F0B00000F01CF8102040EA141000F07D
:1021100017F804F00F00BDE8104000F011B80000FF
:1021200002464FF480710148FEF704BB000C0140E9
:1021300002464FF400710148FEF7FCBA000C014062
:1021400010B50446FFF769FF7820FFF74BFF00202A
:10215000FFF748FF2046FFF745FFBDE81040FFF7B7
:102160006BBF10B50446FFF758FF7820FFF73AFF22
:102170004020FFF737FF2046FFF734FFBDE810404F
:10218000FFF75ABF70477047012202490248FFF724
:1021900045BC0000BA00002030020020FEF706BB5C
:1021A00030B58FB028216846FEF70EF814210AA832
:1021B000FEF70AF80920012100904FF48030002436
:1021C00004910691CDE901040225CDE907504FF4B1
:1021D000E01009906846FEF75DFC08B172B6FEE7B4
:1021E0000F20CDE90A054FF48060CDE90C400221B3
:1021F0000AA80E94FEF772FB002801D072B6FEE723
:102200000FB030BD704700000148FEF768BF000006
:10221000C80000200148FEF762BF00001001002046
:102220000148FEF75CBF0000580100200148FEF79E
:1022300056BF0000A0010020F0B50268194B1A4CEF
:102240001A4D4FF08047984205D0B84203D0A042C3
:1022500001D0A84203D122F070064A683243984266
:1022600005D0B84203D0A04201D0A84203D122F445
:102270004074CA6822434C6922F080022243026003
:102280008A68C2620A688262984201D10969016360
:10229000012141610169C90703D0016921F00101F0
:1022A0000161F0BD002C0140000400400008004026
:1022B00010B501F01F030121046A99408C430462A8
:1022C000016A9A401143016210BD10B5846842EA68
:1022D000032224F47F440A432243826010BD8268B3
:1022E00022F070020A4342F007018160704700004B
:1022F00030B5036A026A22F0010202624268846910
:1023000024F073050C682C4323F002058B682B43E3
:102310000A4DA8420BD123F00805CB6822F4407285
:102320002B434D6923F0040315438A692A43426015
:10233000846149684163036230BD0000002C0140A4
:1023400030B5026A036A23F01003036243688469AC
:102350000D6824F4E64444EA05248D6822F0200246
:1023600042EA05120B4DA8420ED1CD6822F0800240
:1023700042EA05124D6923F4406343EA85038D69FF
:1023800022F0400243EA8503436084614968816327
:10239000026230BD002C014030B5036A026A22F4AB
:1023A000807202624268C46923F4007324F07305EA
:1023B0000C682C438D6843EA05230C4DA8420ED1CE
:1023C000CD6823F4006343EA05234D6922F44052AB
:1023D00042EA05128D6923F4806342EA05124260E5
:1023E000C4614968C163036230BD0000002C014034
:1023F00030B5046A026A22F4805202624268C369FC
:102400000D6823F4E64343EA05238D6824F4005461
:1024100044EA0534064DA84204D14D6922F48042B5
:1024200042EA85124260C36149680164046230BDBA
:10243000002C014010B5036A046A24F00104046210
:10244000846924F0F00444EA021423F00A020A43E7
:102450008461026210BD10B5036A046A24F010049E
:102460000462846923F0A00324F4704444EA023235
:1024700043EA01118261016210BD10B5406A00217A
:10248000C185C184FFF79AF810BD01680C3151E88D
:10249000002F22F4907241E80023002BF5D101684F
:1024A000143151E8002F22F0010241E80023002BF3
:1024B000F5D1016B012909D101680C3151E8002FD8
:1024C00022F0100241E80023002BF5D1202180F8F2
:1024D000421000210163704708B590F8421022298C
:1024E00001D0022008BD82684FF480539A4201D186
:1024F000016921B1816A9A421BD04AB10AE002689F
:10250000816A5268C2F308020A80816A891C08E065
:10251000026972B10268526802F07F020A70816A31
:10252000491C8162C18D491E0904090CC18503D073
:102530001BE002685268F1E70168CA6822F02002D5
:10254000CA600168CA6822F48072CA6001684A6978
:1025500022F001024A61202180F8421000214163EB
:10256000026B012A03D0FFF767FA002008BD016360
:1025700001680C3151E8002F22F0100241E80023DD
:10258000002BF5D101680A68D20602D50A684968AD
:102590000091818DFFF711F8E7E7000070B5044660
:1025A00000680169E26821F4405111430161216929
:1025B000A0680843616908432168CA6841F20C6356
:1025C0009A430243CA6020684169A26921F44071BC
:1025D000114341611E492068884202D1FEF724FA66
:1025E00001E0FEF711FA00EBC00101EB0012606898
:1025F00064218000B2FBF0F3B3FBF1F36FF0180637
:102600007343B2FBF0F5B2FBF0F605EB8305322322
:1026100003EB0515B5FBF1F5B6FBF1F605F0F0059A
:1026200005EB0615B2FBF0F6B2FBF0F0B0FBF1F0F3
:102630006FF01802504306EB800003EB0010B0FB74
:10264000F1F0216800F00F002844886070BD0000A0
:102650000038014081628285C285002141642221C7
:1026600080F84210016921B10168CA6842F48072A1
:10267000CA6001684A6942F001024A610068C168A3
:1026800041F02001C1600020704700000148FEF7C2
:1026900097BF0000E80100200148FEF791BF00004D
:1026A00030020020FEE70907090E002804DB00F1D4
:1026B000E02080F80014704700F00F0000F1E020E7
:1026C00080F8141D70470000FEF778F8FFF768FDEA
:1026D000FFF70AFAFFF7DAF9FFF7A6FAFFF708FBA8
:1026E000FFF7D0FBFFF7EAFBFFF74CFBFFF786FA9B
:1026F000FFF794FBFFF7ACFCFFF746FD0A48FEF737
:1027000053FC0A48FEF750FC0948FEF74DFCFFF762
:1027100019FC0120FFF7F8FB0120FFF7EDFB272054
:10272000FFF708FCFEE70000C800002010010020B1
:1027300058010020010202030405060708090A0BDC
:102740000C0D0E0F10100000000000000000010230
:10275000030406070809000000000102030400004A
:102760008027000800000020BC00000028010008AD
:102770003C280008BC0000203C090000440100087F
:1027800001000000100000000000000000127A00AC
:102790000000000000000000A7610000D33000002E
:1027A0008C2000006918000087130000451000000D
:1027B000F20D0000340C0000D80A0000C30900002C
:1027C000DF0800002208000082070000F806000071
:1027D0008106000019060000BD0500006B05000021
:1027E00022050000E1040000A50400006F040000C1
:1027F0003D04000010040000E7030000C0030000D7
:102800009C0300007B0300005D0300004003000008
:10281000250300000C030000F4020000DE020000AB
:10282000C9020000B5020000A202000090020000F0
:0C283000800200007002000000000000A8
:04000005080000ED02
:00000001FF
